{
  "_format": "hh-sol-artifact-1",
  "contractName": "Gate",
  "sourceName": "contracts/Gate.sol",
  "abi": [
    {
      "inputs": [
        {
          "components": [
            {
              "internalType": "uint256",
              "name": "w1",
              "type": "uint256"
            },
            {
              "internalType": "uint256",
              "name": "w2",
              "type": "uint256"
            },
            {
              "internalType": "uint256",
              "name": "w3",
              "type": "uint256"
            },
            {
              "internalType": "uint256",
              "name": "w4",
              "type": "uint256"
            }
          ],
          "internalType": "struct DataTypes.ChainParams",
          "name": "priceQueryParams",
          "type": "tuple"
        }
      ],
      "stateMutability": "nonpayable",
      "type": "constructor"
    },
    {
      "inputs": [],
      "name": "AlreadyCompleted",
      "type": "error"
    },
    {
      "inputs": [],
      "name": "AlreadyVoted",
      "type": "error"
    },
    {
      "inputs": [],
      "name": "CommitteeAlreadySelected",
      "type": "error"
    },
    {
      "inputs": [],
      "name": "DataPointsAlreadySubmitted",
      "type": "error"
    },
    {
      "inputs": [],
      "name": "EmptyFee",
      "type": "error"
    },
    {
      "inputs": [],
      "name": "EmptyHash",
      "type": "error"
    },
    {
      "inputs": [],
      "name": "EmptyQuery",
      "type": "error"
    },
    {
      "inputs": [],
      "name": "HashAlreadyLocked",
      "type": "error"
    },
    {
      "inputs": [],
      "name": "HashAlreadySubmitted",
      "type": "error"
    },
    {
      "inputs": [],
      "name": "HashNotLocked",
      "type": "error"
    },
    {
      "inputs": [],
      "name": "IndexerAlreadyRegistered",
      "type": "error"
    },
    {
      "inputs": [],
      "name": "InsufficientBalance",
      "type": "error"
    },
    {
      "inputs": [],
      "name": "InvalidChainWeights",
      "type": "error"
    },
    {
      "inputs": [],
      "name": "InvalidHash",
      "type": "error"
    },
    {
      "inputs": [],
      "name": "InvalidOraclesLength",
      "type": "error"
    },
    {
      "inputs": [
        {
          "internalType": "enum DataTypes.RequestStatus",
          "name": "actual",
          "type": "uint8"
        }
      ],
      "name": "InvalidRequestStatus",
      "type": "error"
    },
    {
      "inputs": [],
      "name": "NoHashSubmitted",
      "type": "error"
    },
    {
      "inputs": [],
      "name": "NoRequestFound",
      "type": "error"
    },
    {
      "inputs": [],
      "name": "NotCommittee",
      "type": "error"
    },
    {
      "inputs": [],
      "name": "NotEnoughOracles",
      "type": "error"
    },
    {
      "inputs": [],
      "name": "NotIndexer",
      "type": "error"
    },
    {
      "inputs": [],
      "name": "NotOracle",
      "type": "error"
    },
    {
      "inputs": [
        {
          "internalType": "address",
          "name": "owner",
          "type": "address"
        }
      ],
      "name": "OwnableInvalidOwner",
      "type": "error"
    },
    {
      "inputs": [
        {
          "internalType": "address",
          "name": "account",
          "type": "address"
        }
      ],
      "name": "OwnableUnauthorizedAccount",
      "type": "error"
    },
    {
      "inputs": [],
      "name": "QuorumClosed",
      "type": "error"
    },
    {
      "inputs": [],
      "name": "RequestAlreadySubmitted",
      "type": "error"
    },
    {
      "inputs": [],
      "name": "SeedAlreadySubmitted",
      "type": "error"
    },
    {
      "inputs": [],
      "name": "SeedNotSubmitted",
      "type": "error"
    },
    {
      "anonymous": false,
      "inputs": [
        {
          "indexed": true,
          "internalType": "string",
          "name": "targetChain",
          "type": "string"
        },
        {
          "indexed": false,
          "internalType": "string",
          "name": "price",
          "type": "string"
        },
        {
          "indexed": false,
          "internalType": "uint256",
          "name": "timestamp",
          "type": "uint256"
        }
      ],
      "name": "ChainPriceUpdated",
      "type": "event"
    },
    {
      "anonymous": false,
      "inputs": [
        {
          "indexed": true,
          "internalType": "bytes32",
          "name": "requestId",
          "type": "bytes32"
        },
        {
          "indexed": false,
          "internalType": "bytes32",
          "name": "committeeHash",
          "type": "bytes32"
        }
      ],
      "name": "CommitteeHashLocked",
      "type": "event"
    },
    {
      "anonymous": false,
      "inputs": [
        {
          "indexed": true,
          "internalType": "bytes32",
          "name": "requestId",
          "type": "bytes32"
        },
        {
          "indexed": false,
          "internalType": "string",
          "name": "did",
          "type": "string"
        },
        {
          "indexed": false,
          "internalType": "string[]",
          "name": "dataPoints",
          "type": "string[]"
        },
        {
          "indexed": false,
          "internalType": "uint256",
          "name": "submittedData",
          "type": "uint256"
        }
      ],
      "name": "DataPointsSubmitted",
      "type": "event"
    },
    {
      "anonymous": false,
      "inputs": [
        {
          "indexed": true,
          "internalType": "bytes32",
          "name": "requestId",
          "type": "bytes32"
        },
        {
          "indexed": false,
          "internalType": "string",
          "name": "did",
          "type": "string"
        },
        {
          "indexed": false,
          "internalType": "string",
          "name": "hashData",
          "type": "string"
        },
        {
          "indexed": false,
          "internalType": "uint256",
          "name": "submittedHash",
          "type": "uint256"
        }
      ],
      "name": "HashSubmitted",
      "type": "event"
    },
    {
      "anonymous": false,
      "inputs": [
        {
          "indexed": true,
          "internalType": "bytes32",
          "name": "requestId",
          "type": "bytes32"
        },
        {
          "components": [
            {
              "internalType": "string",
              "name": "did",
              "type": "string"
            },
            {
              "internalType": "address",
              "name": "addr",
              "type": "address"
            }
          ],
          "indexed": false,
          "internalType": "struct DataTypes.Node",
          "name": "indexer",
          "type": "tuple"
        }
      ],
      "name": "IndexerVolunteer",
      "type": "event"
    },
    {
      "anonymous": false,
      "inputs": [
        {
          "indexed": true,
          "internalType": "bytes32",
          "name": "requestId",
          "type": "bytes32"
        },
        {
          "components": [
            {
              "internalType": "string",
              "name": "did",
              "type": "string"
            },
            {
              "internalType": "address",
              "name": "addr",
              "type": "address"
            }
          ],
          "indexed": false,
          "internalType": "struct DataTypes.Node[]",
          "name": "oracles",
          "type": "tuple[]"
        }
      ],
      "name": "OracleCommitteeSelected",
      "type": "event"
    },
    {
      "anonymous": false,
      "inputs": [
        {
          "indexed": false,
          "internalType": "address",
          "name": "oracle",
          "type": "address"
        },
        {
          "indexed": false,
          "internalType": "uint256",
          "name": "invalidSubmissions",
          "type": "uint256"
        }
      ],
      "name": "OracleMaxInvalidSeedReached",
      "type": "event"
    },
    {
      "anonymous": false,
      "inputs": [
        {
          "indexed": true,
          "internalType": "address",
          "name": "previousOwner",
          "type": "address"
        },
        {
          "indexed": true,
          "internalType": "address",
          "name": "newOwner",
          "type": "address"
        }
      ],
      "name": "OwnershipTransferred",
      "type": "event"
    },
    {
      "anonymous": false,
      "inputs": [
        {
          "indexed": true,
          "internalType": "bytes32",
          "name": "requestId",
          "type": "bytes32"
        },
        {
          "indexed": false,
          "internalType": "string",
          "name": "result",
          "type": "string"
        }
      ],
      "name": "RequestCompleted",
      "type": "event"
    },
    {
      "anonymous": false,
      "inputs": [
        {
          "indexed": true,
          "internalType": "bytes32",
          "name": "requestId",
          "type": "bytes32"
        },
        {
          "indexed": false,
          "internalType": "string",
          "name": "result",
          "type": "string"
        }
      ],
      "name": "RequestFailed",
      "type": "event"
    },
    {
      "anonymous": false,
      "inputs": [
        {
          "indexed": true,
          "internalType": "bytes32",
          "name": "requestId",
          "type": "bytes32"
        },
        {
          "indexed": false,
          "internalType": "string",
          "name": "seed",
          "type": "string"
        }
      ],
      "name": "RequestReady",
      "type": "event"
    },
    {
      "anonymous": false,
      "inputs": [
        {
          "indexed": true,
          "internalType": "bytes32",
          "name": "requestId",
          "type": "bytes32"
        }
      ],
      "name": "RequestSeedInvalidated",
      "type": "event"
    },
    {
      "anonymous": false,
      "inputs": [
        {
          "indexed": true,
          "internalType": "bytes32",
          "name": "requestId",
          "type": "bytes32"
        },
        {
          "indexed": false,
          "internalType": "string",
          "name": "seed",
          "type": "string"
        },
        {
          "indexed": false,
          "internalType": "string",
          "name": "pubKey",
          "type": "string"
        },
        {
          "indexed": false,
          "internalType": "address",
          "name": "submitter",
          "type": "address"
        }
      ],
      "name": "RequestSeeded",
      "type": "event"
    },
    {
      "anonymous": false,
      "inputs": [
        {
          "indexed": true,
          "internalType": "bytes32",
          "name": "requestId",
          "type": "bytes32"
        },
        {
          "indexed": true,
          "internalType": "address",
          "name": "sender",
          "type": "address"
        }
      ],
      "name": "RequestSubmitted",
      "type": "event"
    },
    {
      "anonymous": false,
      "inputs": [
        {
          "indexed": true,
          "internalType": "bytes32",
          "name": "requestId",
          "type": "bytes32"
        },
        {
          "indexed": false,
          "internalType": "bytes32",
          "name": "scoreHash",
          "type": "bytes32"
        }
      ],
      "name": "ScoreHashLocked",
      "type": "event"
    },
    {
      "anonymous": false,
      "inputs": [
        {
          "indexed": true,
          "internalType": "bytes32",
          "name": "requestId",
          "type": "bytes32"
        },
        {
          "indexed": false,
          "internalType": "address[]",
          "name": "idxAddrs",
          "type": "address[]"
        },
        {
          "indexed": false,
          "internalType": "int256[]",
          "name": "idxScores",
          "type": "int256[]"
        },
        {
          "indexed": false,
          "internalType": "address[]",
          "name": "oraAddrs",
          "type": "address[]"
        },
        {
          "indexed": false,
          "internalType": "int256[]",
          "name": "oraScores",
          "type": "int256[]"
        }
      ],
      "name": "ScoresUpdated",
      "type": "event"
    },
    {
      "inputs": [
        {
          "internalType": "string",
          "name": "did",
          "type": "string"
        },
        {
          "internalType": "bytes32",
          "name": "requestId",
          "type": "bytes32"
        }
      ],
      "name": "applyToRequest",
      "outputs": [],
      "stateMutability": "nonpayable",
      "type": "function"
    },
    {
      "inputs": [
        {
          "internalType": "string",
          "name": "did",
          "type": "string"
        },
        {
          "internalType": "string[]",
          "name": "targetDids",
          "type": "string[]"
        }
      ],
      "name": "banIndexers",
      "outputs": [],
      "stateMutability": "nonpayable",
      "type": "function"
    },
    {
      "inputs": [
        {
          "internalType": "string",
          "name": "did",
          "type": "string"
        },
        {
          "internalType": "string[]",
          "name": "targetDids",
          "type": "string[]"
        }
      ],
      "name": "banOracles",
      "outputs": [],
      "stateMutability": "nonpayable",
      "type": "function"
    },
    {
      "inputs": [
        {
          "internalType": "string",
          "name": "did",
          "type": "string"
        },
        {
          "internalType": "bytes32",
          "name": "requestId",
          "type": "bytes32"
        }
      ],
      "name": "closeIndexerRegistration",
      "outputs": [],
      "stateMutability": "nonpayable",
      "type": "function"
    },
    {
      "inputs": [
        {
          "internalType": "string",
          "name": "did",
          "type": "string"
        },
        {
          "internalType": "bytes32",
          "name": "requestId",
          "type": "bytes32"
        },
        {
          "internalType": "bytes32",
          "name": "scoreHash",
          "type": "bytes32"
        }
      ],
      "name": "commitScoreHash",
      "outputs": [],
      "stateMutability": "nonpayable",
      "type": "function"
    },
    {
      "inputs": [
        {
          "internalType": "bytes32",
          "name": "requestId",
          "type": "bytes32"
        },
        {
          "internalType": "string[]",
          "name": "oraclesDids",
          "type": "string[]"
        },
        {
          "internalType": "uint256",
          "name": "limitTimestamp",
          "type": "uint256"
        }
      ],
      "name": "getOracleRequestData",
      "outputs": [
        {
          "components": [
            {
              "internalType": "string",
              "name": "did",
              "type": "string"
            },
            {
              "internalType": "uint256",
              "name": "timestamp",
              "type": "uint256"
            },
            {
              "internalType": "string",
              "name": "hashData",
              "type": "string"
            },
            {
              "internalType": "string[]",
              "name": "dataPoints",
              "type": "string[]"
            }
          ],
          "internalType": "struct DataTypes.OracleData[]",
          "name": "",
          "type": "tuple[]"
        }
      ],
      "stateMutability": "view",
      "type": "function"
    },
    {
      "inputs": [
        {
          "internalType": "bytes32",
          "name": "requestId",
          "type": "bytes32"
        }
      ],
      "name": "getRequest",
      "outputs": [
        {
          "components": [
            {
              "internalType": "string",
              "name": "query",
              "type": "string"
            },
            {
              "components": [
                {
                  "internalType": "uint256",
                  "name": "w1",
                  "type": "uint256"
                },
                {
                  "internalType": "uint256",
                  "name": "w2",
                  "type": "uint256"
                },
                {
                  "internalType": "uint256",
                  "name": "w3",
                  "type": "uint256"
                },
                {
                  "internalType": "uint256",
                  "name": "w4",
                  "type": "uint256"
                }
              ],
              "internalType": "struct DataTypes.ChainParams",
              "name": "chainParams",
              "type": "tuple"
            },
            {
              "internalType": "address",
              "name": "consumer",
              "type": "address"
            },
            {
              "internalType": "uint256",
              "name": "fee",
              "type": "uint256"
            },
            {
              "internalType": "uint256",
              "name": "timestamp",
              "type": "uint256"
            },
            {
              "internalType": "uint256",
              "name": "ko",
              "type": "uint256"
            },
            {
              "internalType": "uint256",
              "name": "ki",
              "type": "uint256"
            },
            {
              "internalType": "enum DataTypes.RequestStatus",
              "name": "status",
              "type": "uint8"
            },
            {
              "internalType": "string",
              "name": "result",
              "type": "string"
            },
            {
              "components": [
                {
                  "internalType": "string",
                  "name": "did",
                  "type": "string"
                },
                {
                  "internalType": "address",
                  "name": "addr",
                  "type": "address"
                }
              ],
              "internalType": "struct DataTypes.Node[]",
              "name": "indexers",
              "type": "tuple[]"
            },
            {
              "components": [
                {
                  "internalType": "string",
                  "name": "did",
                  "type": "string"
                },
                {
                  "internalType": "address",
                  "name": "addr",
                  "type": "address"
                }
              ],
              "internalType": "struct DataTypes.Node[]",
              "name": "committee",
              "type": "tuple[]"
            }
          ],
          "internalType": "struct DataTypes.Request",
          "name": "",
          "type": "tuple"
        }
      ],
      "stateMutability": "view",
      "type": "function"
    },
    {
      "inputs": [
        {
          "internalType": "bytes32",
          "name": "requestId",
          "type": "bytes32"
        }
      ],
      "name": "getResult",
      "outputs": [
        {
          "internalType": "string",
          "name": "",
          "type": "string"
        }
      ],
      "stateMutability": "view",
      "type": "function"
    },
    {
      "inputs": [
        {
          "internalType": "string",
          "name": "did",
          "type": "string"
        },
        {
          "internalType": "bytes32",
          "name": "requestId",
          "type": "bytes32"
        }
      ],
      "name": "invalidateSeed",
      "outputs": [],
      "stateMutability": "nonpayable",
      "type": "function"
    },
    {
      "inputs": [
        {
          "internalType": "string",
          "name": "did",
          "type": "string"
        },
        {
          "internalType": "bytes32",
          "name": "requestId",
          "type": "bytes32"
        }
      ],
      "name": "isCommitteeMember",
      "outputs": [
        {
          "internalType": "bool",
          "name": "",
          "type": "bool"
        }
      ],
      "stateMutability": "view",
      "type": "function"
    },
    {
      "inputs": [],
      "name": "owner",
      "outputs": [
        {
          "internalType": "address",
          "name": "",
          "type": "address"
        }
      ],
      "stateMutability": "view",
      "type": "function"
    },
    {
      "inputs": [],
      "name": "renounceOwnership",
      "outputs": [],
      "stateMutability": "nonpayable",
      "type": "function"
    },
    {
      "inputs": [
        {
          "internalType": "address",
          "name": "contractAddress",
          "type": "address"
        }
      ],
      "name": "setIndexerRegistryContract",
      "outputs": [],
      "stateMutability": "nonpayable",
      "type": "function"
    },
    {
      "inputs": [
        {
          "internalType": "address",
          "name": "contractAddress",
          "type": "address"
        }
      ],
      "name": "setOracleRegistryContract",
      "outputs": [],
      "stateMutability": "nonpayable",
      "type": "function"
    },
    {
      "inputs": [
        {
          "internalType": "string[]",
          "name": "chains",
          "type": "string[]"
        }
      ],
      "name": "setSupportedChains",
      "outputs": [],
      "stateMutability": "nonpayable",
      "type": "function"
    },
    {
      "inputs": [
        {
          "internalType": "address",
          "name": "contractAddress",
          "type": "address"
        }
      ],
      "name": "setZoniaTokenContract",
      "outputs": [],
      "stateMutability": "nonpayable",
      "type": "function"
    },
    {
      "inputs": [
        {
          "internalType": "string",
          "name": "did",
          "type": "string"
        },
        {
          "internalType": "bytes32",
          "name": "requestId",
          "type": "bytes32"
        },
        {
          "internalType": "address[]",
          "name": "committee",
          "type": "address[]"
        }
      ],
      "name": "submitCommittee",
      "outputs": [],
      "stateMutability": "nonpayable",
      "type": "function"
    },
    {
      "inputs": [
        {
          "internalType": "string",
          "name": "did",
          "type": "string"
        },
        {
          "internalType": "bytes32",
          "name": "requestId",
          "type": "bytes32"
        },
        {
          "internalType": "bytes32",
          "name": "committeeHash",
          "type": "bytes32"
        }
      ],
      "name": "submitCommitteeHash",
      "outputs": [],
      "stateMutability": "nonpayable",
      "type": "function"
    },
    {
      "inputs": [
        {
          "internalType": "string",
          "name": "did",
          "type": "string"
        },
        {
          "internalType": "bytes32",
          "name": "requestId",
          "type": "bytes32"
        },
        {
          "internalType": "string[]",
          "name": "dataPoints",
          "type": "string[]"
        }
      ],
      "name": "submitDataPoints",
      "outputs": [],
      "stateMutability": "nonpayable",
      "type": "function"
    },
    {
      "inputs": [
        {
          "internalType": "string",
          "name": "did",
          "type": "string"
        },
        {
          "internalType": "bytes32",
          "name": "requestId",
          "type": "bytes32"
        },
        {
          "internalType": "string",
          "name": "hashData",
          "type": "string"
        }
      ],
      "name": "submitHash",
      "outputs": [],
      "stateMutability": "nonpayable",
      "type": "function"
    },
    {
      "inputs": [
        {
          "components": [
            {
              "internalType": "string",
              "name": "query",
              "type": "string"
            },
            {
              "components": [
                {
                  "internalType": "uint256",
                  "name": "w1",
                  "type": "uint256"
                },
                {
                  "internalType": "uint256",
                  "name": "w2",
                  "type": "uint256"
                },
                {
                  "internalType": "uint256",
                  "name": "w3",
                  "type": "uint256"
                },
                {
                  "internalType": "uint256",
                  "name": "w4",
                  "type": "uint256"
                }
              ],
              "internalType": "struct DataTypes.ChainParams",
              "name": "chainParams",
              "type": "tuple"
            },
            {
              "internalType": "uint256",
              "name": "ko",
              "type": "uint256"
            },
            {
              "internalType": "uint256",
              "name": "ki",
              "type": "uint256"
            },
            {
              "internalType": "uint256",
              "name": "fee",
              "type": "uint256"
            }
          ],
          "internalType": "struct DataTypes.InputRequest",
          "name": "inputRequest",
          "type": "tuple"
        }
      ],
      "name": "submitRequest",
      "outputs": [
        {
          "internalType": "bytes32",
          "name": "",
          "type": "bytes32"
        }
      ],
      "stateMutability": "nonpayable",
      "type": "function"
    },
    {
      "inputs": [
        {
          "internalType": "string",
          "name": "did",
          "type": "string"
        },
        {
          "internalType": "bytes32",
          "name": "requestId",
          "type": "bytes32"
        },
        {
          "internalType": "string",
          "name": "result",
          "type": "string"
        }
      ],
      "name": "submitRequestTimeout",
      "outputs": [],
      "stateMutability": "nonpayable",
      "type": "function"
    },
    {
      "inputs": [
        {
          "internalType": "string",
          "name": "did",
          "type": "string"
        },
        {
          "internalType": "bytes32",
          "name": "requestId",
          "type": "bytes32"
        },
        {
          "internalType": "string",
          "name": "result",
          "type": "string"
        }
      ],
      "name": "submitResult",
      "outputs": [],
      "stateMutability": "nonpayable",
      "type": "function"
    },
    {
      "inputs": [
        {
          "internalType": "string",
          "name": "did",
          "type": "string"
        },
        {
          "internalType": "bytes32",
          "name": "requestId",
          "type": "bytes32"
        },
        {
          "internalType": "string",
          "name": "seed",
          "type": "string"
        },
        {
          "internalType": "string",
          "name": "pubKey",
          "type": "string"
        }
      ],
      "name": "submitSeed",
      "outputs": [],
      "stateMutability": "nonpayable",
      "type": "function"
    },
    {
      "inputs": [
        {
          "internalType": "address",
          "name": "newOwner",
          "type": "address"
        }
      ],
      "name": "transferOwnership",
      "outputs": [],
      "stateMutability": "nonpayable",
      "type": "function"
    },
    {
      "inputs": [
        {
          "internalType": "string",
          "name": "did",
          "type": "string"
        },
        {
          "internalType": "bytes32",
          "name": "requestId",
          "type": "bytes32"
        },
        {
          "internalType": "address[]",
          "name": "idxAddrs",
          "type": "address[]"
        },
        {
          "internalType": "int256[]",
          "name": "idxScores",
          "type": "int256[]"
        },
        {
          "internalType": "address[]",
          "name": "oraAddrs",
          "type": "address[]"
        },
        {
          "internalType": "int256[]",
          "name": "oraScores",
          "type": "int256[]"
        }
      ],
      "name": "updateScores",
      "outputs": [],
      "stateMutability": "nonpayable",
      "type": "function"
    }
  ],
  "bytecode": "0x608060405234801561001057600080fd5b50604051615c16380380615c1683398101604081905261002f916100d0565b338061005557604051631e4fbdf760e01b81526000600482015260240160405180910390fd5b61005e81610080565b5080516005556020810151600655604081015160075560600151600855610145565b600080546001600160a01b038381166001600160a01b0319831681178455604051919092169283917f8be0079c531659141344cd1fd0a4f28419497f9722a3daafe3b4186f6b6457e09190a35050565b600060808284031280156100e357600080fd5b50604051600090608081016001600160401b038111828210171561011557634e487b7160e01b83526041600452602483fd5b60409081528451825260208086015190830152848101519082015260609384015193810193909352509092915050565b615ac2806101546000396000f3fe608060405234801561001057600080fd5b506004361061018e5760003560e01c80638da5cb5b116100de578063b6bfb1d011610097578063cd9a15e711610071578063cd9a15e714610364578063dfc140df14610377578063f2fde38b14610397578063fb1e61ca146103aa57600080fd5b8063b6bfb1d01461032b578063b7ba4d131461033e578063cb1c642a1461035157600080fd5b80638da5cb5b146102815780639332b3e5146102a1578063a803d7c2146102b4578063a87425f4146102d5578063a8faa121146102f8578063add4c7841461030b57600080fd5b80634b3b8a0d1161014b5780635cd1f8cc116101255780635cd1f8cc14610240578063715018a61461025357806388a0608b1461025b5780638a1fb49f1461026e57600080fd5b80634b3b8a0d146102075780634c3a849d1461021a5780634f7e7b5e1461022d57600080fd5b806302ee9b8c1461019357806305e37b41146101a8578063169af8a7146101bb5780631bbb6011146101ce5780633606e515146101e15780634ae56d62146101f4575b600080fd5b6101a66101a13660046145cd565b6103ca565b005b6101a66101b6366004614651565b610537565b6101a66101c93660046147a4565b610561565b6101a66101dc366004614814565b61073d565b6101a66101ef366004614861565b61084e565b6101a66102023660046145cd565b610baa565b6101a66102153660046147a4565b610d0f565b6101a66102283660046147a4565b610e12565b6101a661023b366004614861565b610f76565b6101a661024e366004614814565b6110f3565b6101a661129a565b6101a6610269366004614651565b6112ae565b6101a661027c3660046148a5565b6112d8565b6000546040516001600160a01b0390911681526020015b60405180910390f35b6101a66102af3660046149fb565b6114ef565b6102c76102c2366004614a2f565b611518565b604051908152602001610298565b6102e86102e3366004614861565b6115bd565b6040519015158152602001610298565b6101a6610306366004614a6a565b611645565b61031e610319366004614ac5565b611925565b6040516102989190614b2e565b6101a6610339366004614b41565b611a10565b6101a661034c366004614861565b611b05565b6101a661035f366004614ba7565b611caf565b6101a6610372366004614651565b612210565b61038a610385366004614cb1565b61223a565b6040516102989190614d5f565b6101a66103a5366004614651565b612633565b6103bd6103b8366004614ac5565b612671565b6040516102989190614ec9565b83838080601f0160208091040260200160405190810160405280939291908181526020018383808284376000920191909152505060015460405163bd290b8160e01b81526001600160a01b03909116925063bd290b8191506104329084903390600401614fce565b602060405180830381865afa15801561044f573d6000803e3d6000fd5b505050506040513d601f19601f820116820180604052508101906104739190614ff8565b61049057604051631bc2178f60e01b815260040160405180910390fd5b60005b8281101561052f576001546001600160a01b03166323278b2c87878787868181106104c0576104c061501a565b90506020028101906104d29190615030565b6040518563ffffffff1660e01b81526004016104f1949392919061509f565b600060405180830381600087803b15801561050b57600080fd5b505af115801561051f573d6000803e3d6000fd5b5050600190920191506104939050565b505050505050565b61053f612ad7565b600280546001600160a01b0319166001600160a01b0392909216919091179055565b81600080828152600c60205260409020600a015460ff16600481111561058957610589614e0f565b036105a7576040516308ae297960e31b815260040160405180910390fd5b8383600d6000828152602001908152602001600020600801826040516105cd91906150d1565b9081526040519081900360200190205460ff166105fd576040516373d664e160e11b815260040160405180910390fd5b60036000868152600c60205260409020600a015460ff16600481111561062557610625614e0f565b1480610656575060046000868152600c60205260409020600a015460ff16600481111561065457610654614e0f565b145b156106745760405163195332a560e01b815260040160405180910390fd5b6000858152600c60209081526040808320600d90925282208291829161069e918b918a9190612b04565b92509250925082156106f357877fbe14b7a7d779b98a5bb538ef85a869aadff29c26781d71edf90b460afd72c496826040516106da9190614b2e565b60405180910390a26106ee88826004612d96565b610732565b811561073257877f31382cf5ac23d51290b15fd9186508d184cea0cdf3d4f969c0289e39b82c34e3826040516107299190614b2e565b60405180910390a25b505050505050505050565b81600080828152600c60205260409020600a015460ff16600481111561076557610765614e0f565b03610783576040516308ae297960e31b815260040160405180910390fd5b8383600d6000828152602001908152602001600020600801826040516107a991906150d1565b9081526040519081900360200190205460ff166107d9576040516373d664e160e11b815260040160405180910390fd5b6000858152600c60209081526040808320600d9092528220610802918991889190600e01612ed0565b9050801561084557857fc3d44bb7614bff9c4c6bc72c369a0e910f67e466a785f7ece661d9b4393b41008660405161083c91815260200190565b60405180910390a25b50505050505050565b80600080828152600c60205260409020600a015460ff16600481111561087657610876614e0f565b03610894576040516308ae297960e31b815260040160405180910390fd5b816001600080838152600c60205260409020600a015460ff1660048111156108be576108be614e0f565b036108dc576040516308ae297960e31b815260040160405180910390fd5b8060048111156108ee576108ee614e0f565b6000838152600c60205260409020600a015460ff16600481111561091457610914614e0f565b14610952576000828152600c602052604090819020600a0154905163e38d24af60e01b81526109499160ff16906004016150ed565b60405180910390fd5b6000848152600d6020908152604080832060048082015460015484516316ede89d60e11b815294516001600160a01b03928316979687966109e9968f9660029091019590941693632ddbd13a9382820193929091908290030181865afa1580156109c0573d6000803e3d6000fd5b505050506040513d601f19601f820116820180604052508101906109e491906150fb565b612f54565b915091508115610a485760405187907fa3c906bf1ab14189d406ad394e3773e91e74c7816c737729ec3fec05fb36960190600090a26001600160a01b0383166000908152600f60205260408120805491610a428361512a565b91905055505b6001600160a01b0383166000908152600f602052604090205460041901610b1a576001600160a01b0383166000818152600f6020908152604091829020548251938452908301527ffe3d9a902332d9a11731a4a0100eed7af3892ceae895c4b939f9b216cee44a51910160405180910390a16001546040516312f8799b60e31b81526001600160a01b038581166004830152909116906397c3ccd890602401600060405180830381600087803b158015610b0157600080fd5b505af1158015610b15573d6000803e3d6000fd5b505050505b8015610ba0576000878152600c60205260409020600a810180546004919060ff19166001830217905550604051806060016040528060328152602001615a3860329139600b820190610b6c90826151c3565b50877f31382cf5ac23d51290b15fd9186508d184cea0cdf3d4f969c0289e39b82c34e382600b016040516107299190615304565b5050505050505050565b83838080601f0160208091040260200160405190810160405280939291908181526020018383808284376000920191909152505060015460405163bd290b8160e01b81526001600160a01b03909116925063bd290b819150610c129084903390600401614fce565b602060405180830381865afa158015610c2f573d6000803e3d6000fd5b505050506040513d601f19601f82011682018060405250810190610c539190614ff8565b610c7057604051631bc2178f60e01b815260040160405180910390fd5b60005b8281101561052f576002546001600160a01b03166323278b2c8787878786818110610ca057610ca061501a565b9050602002810190610cb29190615030565b6040518563ffffffff1660e01b8152600401610cd1949392919061509f565b600060405180830381600087803b158015610ceb57600080fd5b505af1158015610cff573d6000803e3d6000fd5b505060019092019150610c739050565b60015460405163bd290b8160e01b815284916001600160a01b03169063bd290b8190610d419084903390600401614fce565b602060405180830381865afa158015610d5e573d6000803e3d6000fd5b505050506040513d601f19601f82011682018060405250810190610d829190614ff8565b610d9f57604051631bc2178f60e01b815260040160405180910390fd5b6000838152600e60205260409020610dba9085908490613087565b827f38ffacae4c08fe902886b7accdf507ec217bc7df7a9723575a6ceff20dbfabd18584600e600088815260200190815260200160002060010154604051610e0493929190615317565b60405180910390a250505050565b81600080828152600c60205260409020600a015460ff166004811115610e3a57610e3a614e0f565b03610e58576040516308ae297960e31b815260040160405180910390fd5b8383600d600082815260200190815260200160002060080182604051610e7e91906150d1565b9081526040519081900360200190205460ff16610eae576040516373d664e160e11b815260040160405180910390fd5b60036000868152600c60205260409020600a015460ff166004811115610ed657610ed6614e0f565b1480610f07575060046000868152600c60205260409020600a015460ff166004811115610f0557610f05614e0f565b145b15610f255760405163195332a560e01b815260040160405180910390fd5b6000858152600c60205260408120610f3e9086906131c7565b9050801561084557857f31382cf5ac23d51290b15fd9186508d184cea0cdf3d4f969c0289e39b82c34e38660405161083c9190614b2e565b8181600d600082815260200190815260200160002060080182604051610f9c91906150d1565b9081526040519081900360200190205460ff16610fcc576040516373d664e160e11b815260040160405180910390fd5b826001600080838152600c60205260409020600a015460ff166004811115610ff657610ff6614e0f565b03611014576040516308ae297960e31b815260040160405180910390fd5b80600481111561102657611026614e0f565b6000838152600c60205260409020600a015460ff16600481111561104c5761104c614e0f565b14611081576000828152600c602052604090819020600a0154905163e38d24af60e01b81526109499160ff16906004016150ed565b6000858152600c60209081526040808320600d909252822090916110a6898484613210565b9050801561073257600a8301805460ff1916600290811790915560405189917f358984bf1d24c231bc697ab27186313b8eb4e26bc4ed870fcdf7d2d3680493c69161072991860190615304565b60015460405163bd290b8160e01b815284916001600160a01b03169063bd290b81906111259084903390600401614fce565b602060405180830381865afa158015611142573d6000803e3d6000fd5b505050506040513d601f19601f820116820180604052508101906111669190614ff8565b61118357604051631bc2178f60e01b815260040160405180910390fd5b826001600080838152600c60205260409020600a015460ff1660048111156111ad576111ad614e0f565b036111cb576040516308ae297960e31b815260040160405180910390fd5b8060048111156111dd576111dd614e0f565b6000838152600c60205260409020600a015460ff16600481111561120357611203614e0f565b14611238576000828152600c602052604090819020600a0154905163e38d24af60e01b81526109499160ff16906004016150ed565b6000858152600d602052604081206001546112609189918891906001600160a01b0316613221565b9050801561084557857f4de242b3920f662fc4069c2c1f950ff318100d139512be2d355fe1cc5558d62d8660405161083c91815260200190565b6112a2612ad7565b6112ac60006132ea565b565b6112b6612ad7565b600380546001600160a01b0319166001600160a01b0392909216919091179055565b60015460405163bd290b8160e01b815287916001600160a01b03169063bd290b819061130a9084903390600401614fce565b602060405180830381865afa158015611327573d6000803e3d6000fd5b505050506040513d601f19601f8201168201806040525081019061134b9190614ff8565b61136857604051631bc2178f60e01b815260040160405180910390fd5b856001600080838152600c60205260409020600a015460ff16600481111561139257611392614e0f565b036113b0576040516308ae297960e31b815260040160405180910390fd5b8060048111156113c2576113c2614e0f565b6000838152600c60205260409020600a015460ff1660048111156113e8576113e8614e0f565b1461141d576000828152600c602052604090819020600a0154905163e38d24af60e01b81526109499160ff16906004016150ed565b6000888152600d602052604090206002018054819061143b90615143565b15905061145b576040516315ca91ff60e11b815260040160405180910390fd5b80611467888a8361534d565b506001810161147786888361534d565b506002810180546001600160a01b0319163317905560038101805490600061149e8361512a565b9190505550887fe6a5556870d36b0786fbc1e784a9aeb3d9221fffaae36a9a56a757f9aa972f9c89898989336040516114db95949392919061540c565b60405180910390a250505050505050505050565b6114f7612ad7565b805161150a9060049060208401906143e2565b5050600b805460ff19169055565b60008061152c6115278461544e565b61333a565b90506115613361153b8561544e565b6000848152600c602052604090206001546003546001600160a01b03918216911661339a565b604051339082907f73394f43049193ecd2e0c22eefa0ecf10987ce9c72da906a82a3336dc2ac054790600090a36001546002546003546115b792600492600c926001600160a01b0392831692918216911661369c565b92915050565b600081816000828152600c60205260409020600a015460ff1660048111156115e7576115e7614e0f565b03611605576040516308ae297960e31b815260040160405180910390fd5b600d60008481526020019081526020016000206008018460405161162991906150d1565b9081526040519081900360200190205460ff1691505092915050565b60015460405163bd290b8160e01b815285916001600160a01b03169063bd290b81906116779084903390600401614fce565b602060405180830381865afa158015611694573d6000803e3d6000fd5b505050506040513d601f19601f820116820180604052508101906116b89190614ff8565b6116d557604051631bc2178f60e01b815260040160405180910390fd5b836001600080838152600c60205260409020600a015460ff1660048111156116ff576116ff614e0f565b0361171d576040516308ae297960e31b815260040160405180910390fd5b80600481111561172f5761172f614e0f565b6000838152600c60205260409020600a015460ff16600481111561175557611755614e0f565b1461178a576000828152600c602052604090819020600a0154905163e38d24af60e01b81526109499160ff16906004016150ed565b6000868152600c60209081526040808320600d9092529091206001546117be918891889185916001600160a01b0316613a6f565b506000878152600d602052604081206006830154600290910191906064906117e890600a906154ff565b6117f2919061552c565b60035460058501546040516323b872dd60e01b81526001600160a01b0391821660048201523060248201526044810184905292935016906323b872dd906064016020604051808303816000875af1158015611851573d6000803e3d6000fd5b505050506040513d601f19601f820116820180604052508101906118759190614ff8565b50600354600283015460405163a9059cbb60e01b81526001600160a01b0391821660048201526024810184905291169063a9059cbb906044016020604051808303816000875af11580156118cd573d6000803e3d6000fd5b505050506040513d601f19601f820116820180604052508101906118f19190614ff8565b50887fd228d7fb9deac9e3713560a6105052420492aeec618ba81dd284fa4b01157e1484600d016040516114db9190615540565b606081600080828152600c60205260409020600a015460ff16600481111561194f5761194f614e0f565b0361196d576040516308ae297960e31b815260040160405180910390fd5b6000838152600c60205260409020600b01805461198990615143565b80601f01602080910402602001604051908101604052809291908181526020018280546119b590615143565b8015611a025780601f106119d757610100808354040283529160200191611a02565b820191906000526020600020905b8154815290600101906020018083116119e557829003601f168201915b505050505091505b50919050565b60015460405163bd290b8160e01b815284916001600160a01b03169063bd290b8190611a429084903390600401614fce565b602060405180830381865afa158015611a5f573d6000803e3d6000fd5b505050506040513d601f19601f82011682018060405250810190611a839190614ff8565b611aa057604051631bc2178f60e01b815260040160405180910390fd5b6000838152600e60205260409020611abb9085908490613c74565b827f4e39757557f7d289c5c952b50043388060886deb3106ff793301c55f0a54b49d8584600e600088815260200190815260200160002060020154604051610e04939291906155b7565b60025460405163bd290b8160e01b815283916001600160a01b03169063bd290b8190611b379084903390600401614fce565b602060405180830381865afa158015611b54573d6000803e3d6000fd5b505050506040513d601f19601f82011682018060405250810190611b789190614ff8565b611b955760405163edb5c31560e01b815260040160405180910390fd5b816001600080838152600c60205260409020600a015460ff166004811115611bbf57611bbf614e0f565b03611bdd576040516308ae297960e31b815260040160405180910390fd5b806004811115611bef57611bef614e0f565b6000838152600c60205260409020600a015460ff166004811115611c1557611c15614e0f565b14611c4a576000828152600c602052604090819020600a0154905163e38d24af60e01b81526109499160ff16906004016150ed565b6000848152600c60209081526040808320600d9092528220611c6d918891613d13565b9050847fd3bbf076202f8cc5934e4f5ab20f00092b1accc28994f828d475c3d61c6b2c8b82604051611c9f91906155dc565b60405180910390a2505050505050565b88600080828152600c60205260409020600a015460ff166004811115611cd757611cd7614e0f565b03611cf5576040516308ae297960e31b815260040160405180910390fd5b8a8a600d600082815260200190815260200160002060080182604051611d1b91906150d1565b9081526040519081900360200190205460ff16611d4b576040516373d664e160e11b815260040160405180910390fd5b60008c8152600d60205260409020600254600154611d8992600e01918e918e918e918e918e918e918e918e916001600160a01b039081169116613e0a565b6121bb600c60008e815260200190815260200160002060405180610160016040529081600082018054611dbb90615143565b80601f0160208091040260200160405190810160405280929190818152602001828054611de790615143565b8015611e345780601f10611e0957610100808354040283529160200191611e34565b820191906000526020600020905b815481529060010190602001808311611e1757829003601f168201915b505050505081526020016001820160405180608001604052908160008201548152602001600182015481526020016002820154815260200160038201548152505081526020016005820160009054906101000a90046001600160a01b03166001600160a01b03166001600160a01b0316815260200160068201548152602001600782015481526020016008820154815260200160098201548152602001600a820160009054906101000a900460ff166004811115611ef457611ef4614e0f565b6004811115611f0557611f05614e0f565b8152602001600b82018054611f1990615143565b80601f0160208091040260200160405190810160405280929190818152602001828054611f4590615143565b8015611f925780601f10611f6757610100808354040283529160200191611f92565b820191906000526020600020905b815481529060010190602001808311611f7557829003601f168201915b50505050508152602001600c8201805480602002602001604051908101604052809291908181526020016000905b828210156120975783829060005260206000209060020201604051806040016040529081600082018054611ff390615143565b80601f016020809104026020016040519081016040528092919081815260200182805461201f90615143565b801561206c5780601f106120415761010080835404028352916020019161206c565b820191906000526020600020905b81548152906001019060200180831161204f57829003601f168201915b50505091835250506001918201546001600160a01b0316602091820152918352929092019101611fc0565b505050508152602001600d8201805480602002602001604051908101604052809291908181526020016000905b8282101561219b57838290600052602060002090600202016040518060400160405290816000820180546120f790615143565b80601f016020809104026020016040519081016040528092919081815260200182805461212390615143565b80156121705780601f1061214557610100808354040283529160200191612170565b820191906000526020600020905b81548152906001019060200180831161215357829003601f168201915b50505091835250506001918201546001600160a01b03166020918201529183529290920191016120c4565b505050915250506003548d908d908b908b906001600160a01b0316613f24565b8b7f6e60aca7f5afb26b318a08a758bc0338f24b351719d9abe71678b554a5496f028c8c8c8c8c8c8c8c6040516121f9989796959493929190615666565b60405180910390a250505050505050505050505050565b612218612ad7565b600180546001600160a01b0319166001600160a01b0392909216919091179055565b6000848152600e60205260408120606091846001600160401b0381111561226357612263614675565b6040519080825280602002602001820160405280156122bf57816020015b6122ac6040518060800160405280606081526020016000815260200160608152602001606081525090565b8152602001906001900390816122815790505b50905060005b85811015612626576000838888848181106122e2576122e261501a565b90506020028101906122f49190615030565b6040516123029291906156c6565b908152602001604051809103902090508581600101541015612553578060405180608001604052908160008201805461233a90615143565b80601f016020809104026020016040519081016040528092919081815260200182805461236690615143565b80156123b35780601f10612388576101008083540402835291602001916123b3565b820191906000526020600020905b81548152906001019060200180831161239657829003601f168201915b50505050508152602001600182015481526020016002820180546123d690615143565b80601f016020809104026020016040519081016040528092919081815260200182805461240290615143565b801561244f5780601f106124245761010080835404028352916020019161244f565b820191906000526020600020905b81548152906001019060200180831161243257829003601f168201915b5050505050815260200160038201805480602002602001604051908101604052809291908181526020016000905b8282101561252957838290600052602060002001805461249c90615143565b80601f01602080910402602001604051908101604052809291908181526020018280546124c890615143565b80156125155780601f106124ea57610100808354040283529160200191612515565b820191906000526020600020905b8154815290600101906020018083116124f857829003601f168201915b50505050508152602001906001019061247d565b50505050815250508383815181106125435761254361501a565b602002602001018190525061261d565b60405180608001604052808989858181106125705761257061501a565b90506020028101906125829190615030565b8080601f016020809104026020016040519081016040528093929190818152602001838380828437600092018290525093855250505060208083018290526040805180830182528381528185015280518381529182019052606090920191906125fb565b60608152602001906001900390816125e65790505b508152508383815181106126115761261161501a565b60200260200101819052505b506001016122c5565b509150505b949350505050565b61263b612ad7565b6001600160a01b03811661266557604051631e4fbdf760e01b815260006004820152602401610949565b61266e816132ea565b50565b612679614438565b81600080828152600c60205260409020600a015460ff1660048111156126a1576126a1614e0f565b036126bf576040516308ae297960e31b815260040160405180910390fd5b6000838152600c602052604090819020815161016081019092528054829082906126e890615143565b80601f016020809104026020016040519081016040528092919081815260200182805461271490615143565b80156127615780601f1061273657610100808354040283529160200191612761565b820191906000526020600020905b81548152906001019060200180831161274457829003601f168201915b505050505081526020016001820160405180608001604052908160008201548152602001600182015481526020016002820154815260200160038201548152505081526020016005820160009054906101000a90046001600160a01b03166001600160a01b03166001600160a01b0316815260200160068201548152602001600782015481526020016008820154815260200160098201548152602001600a820160009054906101000a900460ff16600481111561282157612821614e0f565b600481111561283257612832614e0f565b8152602001600b8201805461284690615143565b80601f016020809104026020016040519081016040528092919081815260200182805461287290615143565b80156128bf5780601f10612894576101008083540402835291602001916128bf565b820191906000526020600020905b8154815290600101906020018083116128a257829003601f168201915b50505050508152602001600c8201805480602002602001604051908101604052809291908181526020016000905b828210156129c4578382906000526020600020906002020160405180604001604052908160008201805461292090615143565b80601f016020809104026020016040519081016040528092919081815260200182805461294c90615143565b80156129995780601f1061296e57610100808354040283529160200191612999565b820191906000526020600020905b81548152906001019060200180831161297c57829003601f168201915b50505091835250506001918201546001600160a01b03166020918201529183529290920191016128ed565b505050508152602001600d8201805480602002602001604051908101604052809291908181526020016000905b82821015612ac85783829060005260206000209060020201604051806040016040529081600082018054612a2490615143565b80601f0160208091040260200160405190810160405280929190818152602001828054612a5090615143565b8015612a9d5780601f10612a7257610100808354040283529160200191612a9d565b820191906000526020600020905b815481529060010190602001808311612a8057829003601f168201915b50505091835250506001918201546001600160a01b03166020918201529183529290920191016129f1565b50505091525090949350505050565b6000546001600160a01b031633146112ac5760405163118cdaa760e01b8152336004820152602401610949565b6000806060600084600a0190508060000188604051612b2391906150d1565b9081526040519081900360200190205460ff1615612b5457604051637c9a1cf960e01b815260040160405180910390fd5b60018160000189604051612b6891906150d1565b908152604051908190036020018120805492151560ff19909316929092179091556001820190612b999089906150d1565b908152602001604051809103902054600003612bd2576002810180546001810182556000918252602090912001612bd088826151c3565b505b8060010187604051612be491906150d1565b9081526040519081900360200190208054906000612c018361512a565b9091555050600381018054906000612c188361512a565b90915550506008860154612c2d9060026154ff565b8160010188604051612c3f91906150d1565b9081526020016040518091039020546003612c5a91906154ff565b10612c8e57600a8601805460ff19166003179055600b8601612c7c88826151c3565b50600160008893509350935050612d8c565b8560080154816003015403612d7457600a8601805460ff1916600417905560408051606081019091526023808252615a6a6020830139600b870190612cd390826151c3565b506000600187600b01808054612ce890615143565b80601f0160208091040260200160405190810160405280929190818152602001828054612d1490615143565b8015612d615780601f10612d3657610100808354040283529160200191612d61565b820191906000526020600020905b815481529060010190602001808311612d4457829003601f168201915b5050505050905093509350935050612d8c565b50506040805160208101909152600080825292508291505b9450945094915050565b600083815260058201602052604090205460ff16612db357505050565b600083815260068201602052604081208054612dce90615143565b80601f0160208091040260200160405190810160405280929190818152602001828054612dfa90615143565b8015612e475780601f10612e1c57610100808354040283529160200191612e47565b820191906000526020600020905b815481529060010190602001808311612e2a57829003601f168201915b5050505050905080604051612e5c91906150d1565b60405180910390207f6f83e0de35543af2aee3f99014732264288ef09bdb47436cb93eb9acdade1a7f8442604051612e959291906156d6565b60405180910390a260008481526005830160209081526040808320805460ff19169055600685019091528120612eca916144d5565b50505050565b60006003600a84015460ff166004811115612eed57612eed614e0f565b14158015612f1457506004600a84015460ff166004811115612f1157612f11614e0f565b14155b15612f3b57600a83015460405163e38d24af60e01b81526109499160ff16906004016150ed565b612f4b858386866008015461400b565b95945050505050565b600080836000018054612f6690615143565b9050600003612f885760405163159c2e3360e11b815260040160405180910390fd5b600384015460009081526004850160205260409081902090516001820190612fb19088906150d1565b9081526040519081900360200190205460ff1615612fe257604051637c9a1cf960e01b815260040160405180910390fd5b60018160010187604051612ff691906150d1565b908152604051908190036020019020805491151560ff1990921691909117905580548160006130248361512a565b9091555060009050806130388660026154ff565b83546130459060036154ff565b1061307a57604080516020810190915260008152879061306590826151c3565b5060019150600587600301540361307a575060015b9097909650945050505050565b81516000036130a957604051631c37cddf60e21b815260040160405180910390fd5b60405181906130b99085906150d1565b9081526020016040518091039020600101546000146130eb57604051636425f57d60e11b815260040160405180910390fd5b6040805160808101825284815242602082015290810183905260608101600060405190808252806020026020018201604052801561313d57816020015b60608152602001906001900390816131285790505b50905260405182906131509086906150d1565b9081526040519081900360200190208151819061316d90826151c3565b50602082015160018201556040820151600282019061318c90826151c3565b50606082015180516131a89160038401916020909101906143e2565b5050506001810180549060006131bd8361512a565b9190505550505050565b6000600a82600701546131da91906156f8565b421061320757600a8201805460ff19166004179055600b82016131fd84826151c3565b50600190506115b7565b50600092915050565b600061262b8484600801548461410e565b600082600201600001805461323590615143565b90506000036132575760405163159c2e3360e11b815260040160405180910390fd5b6000826001600160a01b0316632ddbd13a6040518163ffffffff1660e01b8152600401602060405180830381865afa158015613297573d6000803e3d6000fd5b505050506040513d601f19601f820116820180604052508101906132bb91906150fb565b6005850154600090815260078601602052604090209091506132e0908790878461400b565b9695505050505050565b600080546001600160a01b038381166001600160a01b0319831681178455604051919092169283917f8be0079c531659141344cd1fd0a4f28419497f9722a3daafe3b4186f6b6457e09190a35050565b80516020808301518051818301516040808401516060948501518289015195890151925160009861337d983398429846989397909693959394919290910161570b565b604051602081830303815290604052805190602001209050919050565b8351516000036133bd576040516363d15d8360e01b815260040160405180910390fd5b83608001516000036133e257604051631b1853b760e31b815260040160405180910390fd5b60208085015160608101516040820151928201519151909291613404916156f8565b61340e91906156f8565b61341891906156f8565b60641461343857604051634e98572760e11b815260040160405180910390fd5b6080840151604051636eb1769f60e11b81526001600160a01b03878116600483015230602483015283169063dd62ed3e90604401602060405180830381865afa158015613489573d6000803e3d6000fd5b505050506040513d601f19601f820116820180604052508101906134ad91906150fb565b1080613525575060808401516040516370a0823160e01b81526001600160a01b0387811660048301528316906370a0823190602401602060405180830381865afa1580156134ff573d6000803e3d6000fd5b505050506040513d601f19601f8201168201806040525081019061352391906150fb565b105b1561354357604051631e9acf1760e31b815260040160405180910390fd5b6000600a84015460ff16600481111561355e5761355e614e0f565b1461357c57604051633064a4d360e21b815260040160405180910390fd5b6000826001600160a01b0316632ddbd13a6040518163ffffffff1660e01b8152600401602060405180830381865afa1580156135bc573d6000803e3d6000fd5b505050506040513d601f19601f820116820180604052508101906135e091906150fb565b90508085604001511115613607576040516311d0260b60e31b815260040160405180910390fd5b8451849061361590826151c3565b506020858101518051600187810191909155918101516002870155604080820151600388015560609182015160048801556005870180546001600160a01b0319166001600160a01b038b161790556080880151600688015542600788015587015160088701558601516009860155600a8501805460ff191682800217905550505050505050565b6040516370a0823160e01b81523060048201526014906001600160a01b038316906370a0823190602401602060405180830381865afa1580156136e3573d6000803e3d6000fd5b505050506040513d601f19601f8201168201806040525081019061370791906150fb565b10613a685760078501548554600091879160ff90911690811061372c5761372c61501a565b90600052602060002001805461374190615143565b80601f016020809104026020016040519081016040528092919081815260200182805461376d90615143565b80156137ba5780601f1061378f576101008083540402835291602001916137ba565b820191906000526020600020905b81548152906001019060200180831161379d57829003601f168201915b5050505050905060006040518060400160405280600b81526020016a7a6f6e69613a507269636560a81b815250826040516020016137f9929190615778565b604051602081830303815290604052905060006040518060a00160405280838152602001896001016040518060800160405290816000820154815260200160018201548152602001600282015481526020016003820154815250508152602001876001600160a01b0316632ddbd13a6040518163ffffffff1660e01b8152600401602060405180830381865afa158015613897573d6000803e3d6000fd5b505050506040513d601f19601f820116820180604052508101906138bb91906150fb565b8152602001866001600160a01b0316632ddbd13a6040518163ffffffff1660e01b8152600401602060405180830381865afa1580156138fe573d6000803e3d6000fd5b505050506040513d601f19601f8201168201806040525081019061392291906150fb565b81526014602090910181905260405163095ea7b360e01b815230600482015260248101919091529091506001600160a01b0385169063095ea7b3906044016020604051808303816000875af115801561397f573d6000803e3d6000fd5b505050506040513d601f19601f820116820180604052508101906139a39190614ff8565b5060006139af8261333a565b90506139cf30838a60008581526020019081526020016000208a8961339a565b600081815260058a0160209081526040808320805460ff1916600117905560068c019091529020613a0085826151c3565b50885460078a0154613a169060ff1660016157d0565b613a2091906157e9565b60078a01805460ff191660ff92909216919091179055604051309082907f73394f43049193ecd2e0c22eefa0ecf10987ce9c72da906a82a3336dc2ac054790600090a3505050505b5050505050565b600d83015460609015613a9557604051639e81a0b760e01b815260040160405180910390fd5b60088401548514613ab95760405163403f48a560e11b815260040160405180910390fd5b60008686604051602001613ace929190615842565b604051602081830303815290604052805190602001209050613b0b81856007016000876002016003015481526020019081526020016000206141bd565b50604051630e325ac560e21b81526000906001600160a01b038516906338c96b1490613b3d908b908b9060040161584f565b600060405180830381865afa158015613b5a573d6000803e3d6000fd5b505050506040513d6000823e601f3d908101601f19168201604052613b829190810190615863565b600887015490915060005b81811015613c665787600d01838281518110613bab57613bab61501a565b60209081029190910181015182546001810184556000938452919092208251600290920201908190613bdd90826151c3565b5060208201518160010160006101000a8154816001600160a01b0302191690836001600160a01b031602179055505050600187600801848381518110613c2557613c2561501a565b602002602001015160000151604051613c3e91906150d1565b908152604051908190036020019020805491151560ff19909216919091179055600101613b8d565b509098975050505050505050565b60008160000184604051613c8891906150d1565b908152602001604051809103902090508060010154600003613cbd57604051630926d5d760e31b815260040160405180910390fd5b600381015415613ce057604051631dc1193d60e11b815260040160405180910390fd5b8251613cf590600383019060208601906143e2565b50600282018054906000613d088361512a565b919050555050505050565b6040805180820190915260608152600060208201528160090184604051613d3a91906150d1565b9081526040519081900360200190205460ff1615613d6b576040516316ac370560e31b815260040160405180910390fd5b60018260090185604051613d7f91906150d1565b9081526040805160209281900383018120805460ff19169415159490941790935582810190528582523381830152600c85018054600181018255600091825291902082518392600202909101908190613dd890826151c3565b5060209190910151600190910180546001600160a01b0319166001600160a01b03909216919091179055949350505050565b60008a8a8a8a8a8a8a8a604051602001613e2b9897969594939291906159c4565b604051602081830303815290604052805190602001209050613e4d818d6141bd565b50604051633850bf9560e21b81526001600160a01b0384169063e142fe5490613e80908e908e908e908e906004016159fd565b600060405180830381600087803b158015613e9a57600080fd5b505af1158015613eae573d6000803e3d6000fd5b5050604051633850bf9560e21b81526001600160a01b038516925063e142fe549150613ee4908a908a908a908a906004016159fd565b600060405180830381600087803b158015613efe57600080fd5b505af1158015613f12573d6000803e3d6000fd5b50505050505050505050505050505050565b60006064600a8860600151613f3991906154ff565b613f43919061552c565b8760600151613f529190615a24565b60408881015190516323b872dd60e01b81526001600160a01b039182166004820152306024820152604481018390529192508316906323b872dd906064016020604051808303816000875af1158015613faf573d6000803e3d6000fd5b505050506040513d601f19601f82011682018060405250810190613fd39190614ff8565b506064600a8860600151613fe791906154ff565b613ff1919061552c565b613ffb9082615a24565b9050610845828787878786614241565b600283015460009015614031576040516333560d2360e01b815260040160405180910390fd5b60405184906140419087906150d1565b9081526040519081900360200190205460ff161561407257604051637c9a1cf960e01b815260040160405180910390fd5b6001846000018660405161408691906150d1565b9081526040805160209281900383019020805460ff1916931515939093179092556000858152600187019091529081208054916140c28361512a565b909155506140d390508260026154ff565b60008481526001860160205260409020546140ef9060036154ff565b10614103575060028301829055600161262b565b506000949350505050565b6000816001018460405161412291906150d1565b9081526040519081900360200190205460ff161561415357604051637c9a1cf960e01b815260040160405180910390fd5b6001826001018560405161416791906150d1565b908152604051908190036020019020805491151560ff1990921691909117905581548260006141958361512a565b909155506141a690508360026154ff565b82546141b39060036154ff565b1015949350505050565b60028101546000906141e25760405163059688ad60e11b815260040160405180910390fd5b600382015460ff1615614207576040516238245d60e61b815260040160405180910390fd5b8160020154831461422a576040516257c03760e51b815260040160405180910390fd5b50600301805460ff19166001908117909155919050565b600061424d85846156f8565b90508060000361425d575061052f565b6000614269828461552c565b905060005b8481101561432657886001600160a01b031663a9059cbb8787848181106142975761429761501a565b90506020020160208101906142ac9190614651565b6040516001600160e01b031960e084901b1681526001600160a01b039091166004820152602481018590526044016020604051808303816000875af11580156142f9573d6000803e3d6000fd5b505050506040513d601f19601f8201168201806040525081019061431d9190614ff8565b5060010161426e565b5060005b8681101561073257886001600160a01b031663a9059cbb8989848181106143535761435361501a565b90506020020160208101906143689190614651565b6040516001600160e01b031960e084901b1681526001600160a01b039091166004820152602481018590526044016020604051808303816000875af11580156143b5573d6000803e3d6000fd5b505050506040513d601f19601f820116820180604052508101906143d99190614ff8565b5060010161432a565b828054828255906000526020600020908101928215614428579160200282015b82811115614428578251829061441890826151c3565b5091602001919060010190614402565b5061443492915061450f565b5090565b604051806101600160405280606081526020016144766040518060800160405280600081526020016000815260200160008152602001600081525090565b815260200160006001600160a01b0316815260200160008152602001600081526020016000815260200160008152602001600060048111156144ba576144ba614e0f565b81526020016060815260200160608152602001606081525090565b5080546144e190615143565b6000825580601f106144f1575050565b601f01602090049060005260206000209081019061266e919061452c565b8082111561443457600061452382826144d5565b5060010161450f565b5b80821115614434576000815560010161452d565b60008083601f84011261455357600080fd5b5081356001600160401b0381111561456a57600080fd5b60208301915083602082850101111561458257600080fd5b9250929050565b60008083601f84011261459b57600080fd5b5081356001600160401b038111156145b257600080fd5b6020830191508360208260051b850101111561458257600080fd5b600080600080604085870312156145e357600080fd5b84356001600160401b038111156145f957600080fd5b61460587828801614541565b90955093505060208501356001600160401b0381111561462457600080fd5b61463087828801614589565b95989497509550505050565b6001600160a01b038116811461266e57600080fd5b60006020828403121561466357600080fd5b813561466e8161463c565b9392505050565b634e487b7160e01b600052604160045260246000fd5b60405160a081016001600160401b03811182821017156146ad576146ad614675565b60405290565b604051608081016001600160401b03811182821017156146ad576146ad614675565b604080519081016001600160401b03811182821017156146ad576146ad614675565b604051601f8201601f191681016001600160401b038111828210171561471f5761471f614675565b604052919050565b60006001600160401b0382111561474057614740614675565b50601f01601f191660200190565b600082601f83011261475f57600080fd5b813561477261476d82614727565b6146f7565b81815284602083860101111561478757600080fd5b816020850160208301376000918101602001919091529392505050565b6000806000606084860312156147b957600080fd5b83356001600160401b038111156147cf57600080fd5b6147db8682870161474e565b9350506020840135915060408401356001600160401b038111156147fe57600080fd5b61480a8682870161474e565b9150509250925092565b60008060006060848603121561482957600080fd5b83356001600160401b0381111561483f57600080fd5b61484b8682870161474e565b9660208601359650604090950135949350505050565b6000806040838503121561487457600080fd5b82356001600160401b0381111561488a57600080fd5b6148968582860161474e565b95602094909401359450505050565b600080600080600080608087890312156148be57600080fd5b86356001600160401b038111156148d457600080fd5b6148e089828a0161474e565b9650506020870135945060408701356001600160401b0381111561490357600080fd5b61490f89828a01614541565b90955093505060608701356001600160401b0381111561492e57600080fd5b61493a89828a01614541565b979a9699509497509295939492505050565b60006001600160401b0382111561496557614965614675565b5060051b60200190565b600082601f83011261498057600080fd5b813561498e61476d8261494c565b8082825260208201915060208360051b8601019250858311156149b057600080fd5b602085015b838110156149f15780356001600160401b038111156149d357600080fd5b6149e2886020838a010161474e565b845250602092830192016149b5565b5095945050505050565b600060208284031215614a0d57600080fd5b81356001600160401b03811115614a2357600080fd5b61262b8482850161496f565b600060208284031215614a4157600080fd5b81356001600160401b03811115614a5757600080fd5b8201610100818503121561466e57600080fd5b60008060008060608587031215614a8057600080fd5b84356001600160401b03811115614a9657600080fd5b614aa28782880161474e565b9450506020850135925060408501356001600160401b0381111561462457600080fd5b600060208284031215614ad757600080fd5b5035919050565b60005b83811015614af9578181015183820152602001614ae1565b50506000910152565b60008151808452614b1a816020860160208601614ade565b601f01601f19169290920160200192915050565b60208152600061466e6020830184614b02565b600080600060608486031215614b5657600080fd5b83356001600160401b03811115614b6c57600080fd5b614b788682870161474e565b9350506020840135915060408401356001600160401b03811115614b9b57600080fd5b61480a8682870161496f565b60008060008060008060008060008060c08b8d031215614bc657600080fd5b8a356001600160401b03811115614bdc57600080fd5b614be88d828e0161474e565b9a505060208b0135985060408b01356001600160401b03811115614c0b57600080fd5b614c178d828e01614589565b90995097505060608b01356001600160401b03811115614c3657600080fd5b614c428d828e01614589565b90975095505060808b01356001600160401b03811115614c6157600080fd5b614c6d8d828e01614589565b90955093505060a08b01356001600160401b03811115614c8c57600080fd5b614c988d828e01614589565b915080935050809150509295989b9194979a5092959850565b60008060008060608587031215614cc757600080fd5b8435935060208501356001600160401b03811115614ce457600080fd5b614cf087828801614589565b9598909750949560400135949350505050565b600082825180855260208501945060208160051b8301016020850160005b83811015614d5357601f19858403018852614d3d838351614b02565b6020988901989093509190910190600101614d21565b50909695505050505050565b6000602082016020835280845180835260408501915060408160051b86010192506020860160005b82811015614e0357603f198786030184528151805160808752614dad6080880182614b02565b90506020820151602088015260408201518782036040890152614dd08282614b02565b915050606082015191508681036060880152614dec8183614d03565b965050506020938401939190910190600101614d87565b50929695505050505050565b634e487b7160e01b600052602160045260246000fd5b60058110614e4357634e487b7160e01b600052602160045260246000fd5b9052565b6000815160408452614e5c6040850182614b02565b6020938401516001600160a01b0316949093019390935250919050565b600082825180855260208501945060208160051b8301016020850160005b83811015614d5357601f19858403018852614eb3838351614e47565b6020988901989093509190910190600101614e97565b60208152600082516101c06020840152614ee76101e0840182614b02565b90506020840151614f1c6040850182805182526020810151602083015260408101516040830152606081015160608301525050565b5060408401516001600160a01b03811660c085015250606084015160e0840152608084015161010084015260a084015161012084015260c084015161014084015260e0840151614f70610160850182614e25565b50610100840151838203601f1901610180850152614f8e8282614b02565b915050610120840151601f19848303016101a0850152614fae8282614e79565b915050610140840151601f19848303016101c0850152612f4b8282614e79565b604081526000614fe16040830185614b02565b905060018060a01b03831660208301529392505050565b60006020828403121561500a57600080fd5b8151801515811461466e57600080fd5b634e487b7160e01b600052603260045260246000fd5b6000808335601e1984360301811261504757600080fd5b8301803591506001600160401b0382111561506157600080fd5b60200191503681900382131561458257600080fd5b81835281816020850137506000828201602090810191909152601f909101601f19169091010190565b6040815260006150b3604083018688615076565b82810360208401526150c6818587615076565b979650505050505050565b600082516150e3818460208701614ade565b9190910192915050565b602081016115b78284614e25565b60006020828403121561510d57600080fd5b5051919050565b634e487b7160e01b600052601160045260246000fd5b60006001820161513c5761513c615114565b5060010190565b600181811c9082168061515757607f821691505b602082108103611a0a57634e487b7160e01b600052602260045260246000fd5b601f8211156151be57806000526020600020601f840160051c8101602085101561519e5750805b601f840160051c820191505b81811015613a6857600081556001016151aa565b505050565b81516001600160401b038111156151dc576151dc614675565b6151f0816151ea8454615143565b84615177565b6020601f821160018114615224576000831561520c5750848201515b600019600385901b1c1916600184901b178455613a68565b600084815260208120601f198516915b828110156152545787850151825560209485019460019092019101615234565b50848210156152725786840151600019600387901b60f8161c191681555b50505050600190811b01905550565b6000815461528e81615143565b8085526001821680156152a857600181146152c4576152fb565b60ff1983166020870152602082151560051b87010193506152fb565b84600052602060002060005b838110156152f25781546020828a0101526001820191506020810190506152d0565b87016020019450505b50505092915050565b60208152600061466e6020830184615281565b60608152600061532a6060830186614b02565b828103602084015261533c8186614b02565b915050826040830152949350505050565b6001600160401b0383111561536457615364614675565b615378836153728354615143565b83615177565b6000601f8411600181146153ac57600085156153945750838201355b600019600387901b1c1916600186901b178355613a68565b600083815260209020601f19861690835b828110156153dd57868501358255602094850194600190920191016153bd565b50868210156153fa5760001960f88860031b161c19848701351681555b505060018560011b0183555050505050565b606081526000615420606083018789615076565b8281036020840152615433818688615076565b91505060018060a01b03831660408301529695505050505050565b600081360361010081121561546257600080fd5b61546a61468b565b83356001600160401b0381111561548057600080fd5b61548c3682870161474e565b8252506080601f19830112156154a157600080fd5b6154a96146b3565b60208581013582526040808701358284015260608088013582850152608080890135828601529285019390935260a08701359084015260c08601359183019190915260e090940135938101939093525090919050565b80820281158282048414176115b7576115b7615114565b634e487b7160e01b600052601260045260246000fd5b60008261553b5761553b615516565b500490565b6000602082016020835280845480835260408501915060408160051b860101925085600052602060002060005b82811015614e0357603f198786030184526040855261558f6040860183615281565b6001838101546001600160a01b0316602097880152909594909401936002909201910161556d565b6060815260006155ca6060830186614b02565b828103602084015261533c8186614d03565b60208152600061466e6020830184614e47565b81835260208301925060008160005b8481101561562f5781356156118161463c565b6001600160a01b0316865260209586019591909101906001016155fe565b5093949350505050565b81835260208301925060008160005b8481101561562f578135865260209586019590910190600101615648565b60808152600061567a608083018a8c6155ef565b828103602084015261568d81898b615639565b905082810360408401526156a28187896155ef565b905082810360608401526156b7818587615639565b9b9a5050505050505050505050565b8183823760009101908152919050565b6040815260006156e96040830185614b02565b90508260208301529392505050565b808201808211156115b7576115b7615114565b6bffffffffffffffffffffffff198b60601b16815289601482015288603482015260008851615741816054850160208d01614ade565b9091016054810197909752506074860194909452609485019290925260b484015260d483015260f482015261011401949350505050565b693d913a37b834b1911d1160b11b8152825160009061579e81600a850160208801614ade565b8351908301906157b581600a840160208801614ade565b61227d60f01b9101600a810191909152600c01949350505050565b60ff81811683821601908111156115b7576115b7615114565b600060ff8316806157fc576157fc615516565b8060ff84160691505092915050565b60008160005b8481101561562f5781356158248161463c565b6001600160a01b031686526020958601959190910190600101615811565b600061262b82848661580b565b60208152600061262b6020830184866155ef565b60006020828403121561587557600080fd5b81516001600160401b0381111561588b57600080fd5b8201601f8101841361589c57600080fd5b80516158aa61476d8261494c565b8082825260208201915060208360051b8501019250868311156158cc57600080fd5b602084015b838110156159995780516001600160401b038111156158ef57600080fd5b85016040818a03601f1901121561590557600080fd5b61590d6146d5565b60208201516001600160401b0381111561592657600080fd5b82016020810190603f018b1361593b57600080fd5b805161594961476d82614727565b8181528c602083850101111561595e57600080fd5b61596f826020830160208601614ade565b8352505060409190910151906159848261463c565b602081810192909252845292830192016158d1565b509695505050505050565b60008181841561562f578135865260209586019590910190600101615648565b60006159ef6159e86159e16159da858d8f61580b565b8a8c6159a4565b878961580b565b84866159a4565b9a9950505050505050505050565b604081526000615a116040830186886155ef565b82810360208401526150c6818587615639565b818103818111156115b7576115b761511456fe4d6178696d756d206e756d626572206f6620696e76616c69642073656564207375626d697373696f6e7320726561636865644e6f20636f6e73656e737573207265616368656420666f722074686520726573756c74a26469706673582212202ebf247ac24cfe897b02dcbb77e8744b9bef4c5b18ab9d71da8547c5e2d085e464736f6c634300081c0033",
  "linkReferences": {},
  "deployedLinkReferences": {}
}