{
  "_format": "hh-sol-artifact-1",
  "contractName": "Gate",
  "sourceName": "contracts/Gate.sol",
  "abi": [
    {
      "inputs": [],
      "stateMutability": "nonpayable",
      "type": "constructor"
    },
    {
      "inputs": [],
      "name": "AlreadyCompleted",
      "type": "error"
    },
    {
      "inputs": [],
      "name": "AlreadyVoted",
      "type": "error"
    },
    {
      "inputs": [],
      "name": "CommitteeAlreadySelected",
      "type": "error"
    },
    {
      "inputs": [],
      "name": "DataPointsAlreadySubmitted",
      "type": "error"
    },
    {
      "inputs": [],
      "name": "EmptyFee",
      "type": "error"
    },
    {
      "inputs": [],
      "name": "EmptyHash",
      "type": "error"
    },
    {
      "inputs": [],
      "name": "EmptyQuery",
      "type": "error"
    },
    {
      "inputs": [],
      "name": "HashAlreadyLocked",
      "type": "error"
    },
    {
      "inputs": [],
      "name": "HashAlreadySubmitted",
      "type": "error"
    },
    {
      "inputs": [],
      "name": "HashNotLocked",
      "type": "error"
    },
    {
      "inputs": [],
      "name": "IndexerAlreadyRegistered",
      "type": "error"
    },
    {
      "inputs": [],
      "name": "InsufficientBalance",
      "type": "error"
    },
    {
      "inputs": [],
      "name": "InvalidHash",
      "type": "error"
    },
    {
      "inputs": [],
      "name": "InvalidOraclesLength",
      "type": "error"
    },
    {
      "inputs": [
        {
          "internalType": "enum DataTypes.RequestStatus",
          "name": "actual",
          "type": "uint8"
        }
      ],
      "name": "InvalidRequestStatus",
      "type": "error"
    },
    {
      "inputs": [],
      "name": "NoHashSubmitted",
      "type": "error"
    },
    {
      "inputs": [],
      "name": "NoRequestFound",
      "type": "error"
    },
    {
      "inputs": [],
      "name": "NotCommittee",
      "type": "error"
    },
    {
      "inputs": [],
      "name": "NotEnoughOracles",
      "type": "error"
    },
    {
      "inputs": [],
      "name": "NotIndexer",
      "type": "error"
    },
    {
      "inputs": [],
      "name": "NotOracle",
      "type": "error"
    },
    {
      "inputs": [
        {
          "internalType": "address",
          "name": "owner",
          "type": "address"
        }
      ],
      "name": "OwnableInvalidOwner",
      "type": "error"
    },
    {
      "inputs": [
        {
          "internalType": "address",
          "name": "account",
          "type": "address"
        }
      ],
      "name": "OwnableUnauthorizedAccount",
      "type": "error"
    },
    {
      "inputs": [],
      "name": "QuorumClosed",
      "type": "error"
    },
    {
      "inputs": [],
      "name": "RequestAlreadySubmitted",
      "type": "error"
    },
    {
      "inputs": [],
      "name": "SeedAlreadySubmitted",
      "type": "error"
    },
    {
      "inputs": [],
      "name": "SeedNotSubmitted",
      "type": "error"
    },
    {
      "anonymous": false,
      "inputs": [
        {
          "indexed": true,
          "internalType": "bytes32",
          "name": "requestId",
          "type": "bytes32"
        },
        {
          "indexed": false,
          "internalType": "bytes32",
          "name": "committeeHash",
          "type": "bytes32"
        }
      ],
      "name": "CommitteeHashLocked",
      "type": "event"
    },
    {
      "anonymous": false,
      "inputs": [
        {
          "indexed": true,
          "internalType": "bytes32",
          "name": "requestId",
          "type": "bytes32"
        },
        {
          "indexed": false,
          "internalType": "string",
          "name": "did",
          "type": "string"
        },
        {
          "indexed": false,
          "internalType": "string[]",
          "name": "dataPoints",
          "type": "string[]"
        },
        {
          "indexed": false,
          "internalType": "uint256",
          "name": "submittedData",
          "type": "uint256"
        }
      ],
      "name": "DataPointsSubmitted",
      "type": "event"
    },
    {
      "anonymous": false,
      "inputs": [
        {
          "indexed": true,
          "internalType": "bytes32",
          "name": "requestId",
          "type": "bytes32"
        },
        {
          "indexed": false,
          "internalType": "string",
          "name": "did",
          "type": "string"
        },
        {
          "indexed": false,
          "internalType": "string",
          "name": "hashData",
          "type": "string"
        },
        {
          "indexed": false,
          "internalType": "uint256",
          "name": "submittedHash",
          "type": "uint256"
        }
      ],
      "name": "HashSubmitted",
      "type": "event"
    },
    {
      "anonymous": false,
      "inputs": [
        {
          "indexed": true,
          "internalType": "bytes32",
          "name": "requestId",
          "type": "bytes32"
        },
        {
          "components": [
            {
              "internalType": "string",
              "name": "did",
              "type": "string"
            },
            {
              "internalType": "address",
              "name": "addr",
              "type": "address"
            }
          ],
          "indexed": false,
          "internalType": "struct DataTypes.Node",
          "name": "indexer",
          "type": "tuple"
        }
      ],
      "name": "IndexerVolunteer",
      "type": "event"
    },
    {
      "anonymous": false,
      "inputs": [
        {
          "indexed": true,
          "internalType": "bytes32",
          "name": "requestId",
          "type": "bytes32"
        },
        {
          "components": [
            {
              "internalType": "string",
              "name": "did",
              "type": "string"
            },
            {
              "internalType": "address",
              "name": "addr",
              "type": "address"
            }
          ],
          "indexed": false,
          "internalType": "struct DataTypes.Node[]",
          "name": "oracles",
          "type": "tuple[]"
        }
      ],
      "name": "OracleCommitteeSelected",
      "type": "event"
    },
    {
      "anonymous": false,
      "inputs": [
        {
          "indexed": false,
          "internalType": "address",
          "name": "oracle",
          "type": "address"
        },
        {
          "indexed": false,
          "internalType": "uint256",
          "name": "invalidSubmissions",
          "type": "uint256"
        }
      ],
      "name": "OracleMaxInvalidSeedReached",
      "type": "event"
    },
    {
      "anonymous": false,
      "inputs": [
        {
          "indexed": true,
          "internalType": "address",
          "name": "previousOwner",
          "type": "address"
        },
        {
          "indexed": true,
          "internalType": "address",
          "name": "newOwner",
          "type": "address"
        }
      ],
      "name": "OwnershipTransferred",
      "type": "event"
    },
    {
      "anonymous": false,
      "inputs": [
        {
          "indexed": true,
          "internalType": "bytes32",
          "name": "requestId",
          "type": "bytes32"
        },
        {
          "indexed": false,
          "internalType": "string",
          "name": "result",
          "type": "string"
        }
      ],
      "name": "RequestCompleted",
      "type": "event"
    },
    {
      "anonymous": false,
      "inputs": [
        {
          "indexed": true,
          "internalType": "bytes32",
          "name": "requestId",
          "type": "bytes32"
        },
        {
          "indexed": false,
          "internalType": "string",
          "name": "result",
          "type": "string"
        }
      ],
      "name": "RequestFailed",
      "type": "event"
    },
    {
      "anonymous": false,
      "inputs": [
        {
          "indexed": true,
          "internalType": "bytes32",
          "name": "requestId",
          "type": "bytes32"
        },
        {
          "indexed": false,
          "internalType": "string",
          "name": "seed",
          "type": "string"
        }
      ],
      "name": "RequestReady",
      "type": "event"
    },
    {
      "anonymous": false,
      "inputs": [
        {
          "indexed": true,
          "internalType": "bytes32",
          "name": "requestId",
          "type": "bytes32"
        }
      ],
      "name": "RequestSeedInvalidated",
      "type": "event"
    },
    {
      "anonymous": false,
      "inputs": [
        {
          "indexed": true,
          "internalType": "bytes32",
          "name": "requestId",
          "type": "bytes32"
        },
        {
          "indexed": false,
          "internalType": "string",
          "name": "seed",
          "type": "string"
        },
        {
          "indexed": false,
          "internalType": "string",
          "name": "pubKey",
          "type": "string"
        },
        {
          "indexed": false,
          "internalType": "address",
          "name": "submitter",
          "type": "address"
        }
      ],
      "name": "RequestSeeded",
      "type": "event"
    },
    {
      "anonymous": false,
      "inputs": [
        {
          "indexed": true,
          "internalType": "bytes32",
          "name": "requestId",
          "type": "bytes32"
        },
        {
          "indexed": true,
          "internalType": "address",
          "name": "sender",
          "type": "address"
        }
      ],
      "name": "RequestSubmitted",
      "type": "event"
    },
    {
      "anonymous": false,
      "inputs": [
        {
          "indexed": true,
          "internalType": "bytes32",
          "name": "requestId",
          "type": "bytes32"
        },
        {
          "indexed": false,
          "internalType": "bytes32",
          "name": "scoreHash",
          "type": "bytes32"
        }
      ],
      "name": "ScoreHashLocked",
      "type": "event"
    },
    {
      "anonymous": false,
      "inputs": [
        {
          "indexed": true,
          "internalType": "bytes32",
          "name": "requestId",
          "type": "bytes32"
        },
        {
          "indexed": false,
          "internalType": "address[]",
          "name": "idxAddrs",
          "type": "address[]"
        },
        {
          "indexed": false,
          "internalType": "int256[]",
          "name": "idxScores",
          "type": "int256[]"
        },
        {
          "indexed": false,
          "internalType": "address[]",
          "name": "oraAddrs",
          "type": "address[]"
        },
        {
          "indexed": false,
          "internalType": "int256[]",
          "name": "oraScores",
          "type": "int256[]"
        }
      ],
      "name": "ScoresUpdated",
      "type": "event"
    },
    {
      "inputs": [
        {
          "internalType": "string",
          "name": "did",
          "type": "string"
        },
        {
          "internalType": "bytes32",
          "name": "requestId",
          "type": "bytes32"
        }
      ],
      "name": "applyToRequest",
      "outputs": [],
      "stateMutability": "nonpayable",
      "type": "function"
    },
    {
      "inputs": [
        {
          "internalType": "string",
          "name": "did",
          "type": "string"
        },
        {
          "internalType": "string[]",
          "name": "targetDids",
          "type": "string[]"
        }
      ],
      "name": "banIndexers",
      "outputs": [],
      "stateMutability": "nonpayable",
      "type": "function"
    },
    {
      "inputs": [
        {
          "internalType": "string",
          "name": "did",
          "type": "string"
        },
        {
          "internalType": "string[]",
          "name": "targetDids",
          "type": "string[]"
        }
      ],
      "name": "banOracles",
      "outputs": [],
      "stateMutability": "nonpayable",
      "type": "function"
    },
    {
      "inputs": [
        {
          "internalType": "string",
          "name": "did",
          "type": "string"
        },
        {
          "internalType": "bytes32",
          "name": "requestId",
          "type": "bytes32"
        }
      ],
      "name": "closeIndexerRegistration",
      "outputs": [],
      "stateMutability": "nonpayable",
      "type": "function"
    },
    {
      "inputs": [
        {
          "internalType": "string",
          "name": "did",
          "type": "string"
        },
        {
          "internalType": "bytes32",
          "name": "requestId",
          "type": "bytes32"
        },
        {
          "internalType": "bytes32",
          "name": "scoreHash",
          "type": "bytes32"
        }
      ],
      "name": "commitScoreHash",
      "outputs": [],
      "stateMutability": "nonpayable",
      "type": "function"
    },
    {
      "inputs": [
        {
          "internalType": "bytes32",
          "name": "requestId",
          "type": "bytes32"
        },
        {
          "internalType": "string[]",
          "name": "oraclesDids",
          "type": "string[]"
        },
        {
          "internalType": "uint256",
          "name": "limitTimestamp",
          "type": "uint256"
        }
      ],
      "name": "getOracleRequestData",
      "outputs": [
        {
          "components": [
            {
              "internalType": "string",
              "name": "did",
              "type": "string"
            },
            {
              "internalType": "uint256",
              "name": "timestamp",
              "type": "uint256"
            },
            {
              "internalType": "string",
              "name": "hashData",
              "type": "string"
            },
            {
              "internalType": "string[]",
              "name": "dataPoints",
              "type": "string[]"
            }
          ],
          "internalType": "struct DataTypes.OracleData[]",
          "name": "",
          "type": "tuple[]"
        }
      ],
      "stateMutability": "view",
      "type": "function"
    },
    {
      "inputs": [
        {
          "internalType": "bytes32",
          "name": "requestId",
          "type": "bytes32"
        }
      ],
      "name": "getRequest",
      "outputs": [
        {
          "components": [
            {
              "internalType": "string",
              "name": "query",
              "type": "string"
            },
            {
              "internalType": "string",
              "name": "chainParams",
              "type": "string"
            },
            {
              "internalType": "address",
              "name": "consumer",
              "type": "address"
            },
            {
              "internalType": "uint256",
              "name": "fee",
              "type": "uint256"
            },
            {
              "internalType": "uint256",
              "name": "timestamp",
              "type": "uint256"
            },
            {
              "internalType": "uint256",
              "name": "ko",
              "type": "uint256"
            },
            {
              "internalType": "uint256",
              "name": "ki",
              "type": "uint256"
            },
            {
              "internalType": "enum DataTypes.RequestStatus",
              "name": "status",
              "type": "uint8"
            },
            {
              "internalType": "string",
              "name": "result",
              "type": "string"
            },
            {
              "components": [
                {
                  "internalType": "string",
                  "name": "did",
                  "type": "string"
                },
                {
                  "internalType": "address",
                  "name": "addr",
                  "type": "address"
                }
              ],
              "internalType": "struct DataTypes.Node[]",
              "name": "indexers",
              "type": "tuple[]"
            },
            {
              "components": [
                {
                  "internalType": "string",
                  "name": "did",
                  "type": "string"
                },
                {
                  "internalType": "address",
                  "name": "addr",
                  "type": "address"
                }
              ],
              "internalType": "struct DataTypes.Node[]",
              "name": "committee",
              "type": "tuple[]"
            }
          ],
          "internalType": "struct DataTypes.Request",
          "name": "",
          "type": "tuple"
        }
      ],
      "stateMutability": "view",
      "type": "function"
    },
    {
      "inputs": [
        {
          "internalType": "bytes32",
          "name": "requestId",
          "type": "bytes32"
        }
      ],
      "name": "getResult",
      "outputs": [
        {
          "internalType": "string",
          "name": "",
          "type": "string"
        }
      ],
      "stateMutability": "view",
      "type": "function"
    },
    {
      "inputs": [
        {
          "internalType": "string",
          "name": "did",
          "type": "string"
        },
        {
          "internalType": "bytes32",
          "name": "requestId",
          "type": "bytes32"
        }
      ],
      "name": "invalidateSeed",
      "outputs": [],
      "stateMutability": "nonpayable",
      "type": "function"
    },
    {
      "inputs": [
        {
          "internalType": "string",
          "name": "did",
          "type": "string"
        },
        {
          "internalType": "bytes32",
          "name": "requestId",
          "type": "bytes32"
        }
      ],
      "name": "isCommitteeMember",
      "outputs": [
        {
          "internalType": "bool",
          "name": "",
          "type": "bool"
        }
      ],
      "stateMutability": "view",
      "type": "function"
    },
    {
      "inputs": [],
      "name": "owner",
      "outputs": [
        {
          "internalType": "address",
          "name": "",
          "type": "address"
        }
      ],
      "stateMutability": "view",
      "type": "function"
    },
    {
      "inputs": [],
      "name": "renounceOwnership",
      "outputs": [],
      "stateMutability": "nonpayable",
      "type": "function"
    },
    {
      "inputs": [
        {
          "internalType": "address",
          "name": "contractAddress",
          "type": "address"
        }
      ],
      "name": "setIndexerRegistryContract",
      "outputs": [],
      "stateMutability": "nonpayable",
      "type": "function"
    },
    {
      "inputs": [
        {
          "internalType": "address",
          "name": "contractAddress",
          "type": "address"
        }
      ],
      "name": "setOracleRegistryContract",
      "outputs": [],
      "stateMutability": "nonpayable",
      "type": "function"
    },
    {
      "inputs": [
        {
          "internalType": "address",
          "name": "contractAddress",
          "type": "address"
        }
      ],
      "name": "setZoniaTokenContract",
      "outputs": [],
      "stateMutability": "nonpayable",
      "type": "function"
    },
    {
      "inputs": [
        {
          "internalType": "string",
          "name": "did",
          "type": "string"
        },
        {
          "internalType": "bytes32",
          "name": "requestId",
          "type": "bytes32"
        },
        {
          "internalType": "address[]",
          "name": "committee",
          "type": "address[]"
        }
      ],
      "name": "submitCommittee",
      "outputs": [],
      "stateMutability": "nonpayable",
      "type": "function"
    },
    {
      "inputs": [
        {
          "internalType": "string",
          "name": "did",
          "type": "string"
        },
        {
          "internalType": "bytes32",
          "name": "requestId",
          "type": "bytes32"
        },
        {
          "internalType": "bytes32",
          "name": "committeeHash",
          "type": "bytes32"
        }
      ],
      "name": "submitCommitteeHash",
      "outputs": [],
      "stateMutability": "nonpayable",
      "type": "function"
    },
    {
      "inputs": [
        {
          "internalType": "string",
          "name": "did",
          "type": "string"
        },
        {
          "internalType": "bytes32",
          "name": "requestId",
          "type": "bytes32"
        },
        {
          "internalType": "string[]",
          "name": "dataPoints",
          "type": "string[]"
        }
      ],
      "name": "submitDataPoints",
      "outputs": [],
      "stateMutability": "nonpayable",
      "type": "function"
    },
    {
      "inputs": [
        {
          "internalType": "string",
          "name": "did",
          "type": "string"
        },
        {
          "internalType": "bytes32",
          "name": "requestId",
          "type": "bytes32"
        },
        {
          "internalType": "string",
          "name": "hashData",
          "type": "string"
        }
      ],
      "name": "submitHash",
      "outputs": [],
      "stateMutability": "nonpayable",
      "type": "function"
    },
    {
      "inputs": [
        {
          "components": [
            {
              "internalType": "string",
              "name": "query",
              "type": "string"
            },
            {
              "internalType": "string",
              "name": "chainParams",
              "type": "string"
            },
            {
              "internalType": "uint256",
              "name": "ko",
              "type": "uint256"
            },
            {
              "internalType": "uint256",
              "name": "ki",
              "type": "uint256"
            },
            {
              "internalType": "uint256",
              "name": "fee",
              "type": "uint256"
            }
          ],
          "internalType": "struct DataTypes.InputRequest",
          "name": "inputRequest",
          "type": "tuple"
        }
      ],
      "name": "submitRequest",
      "outputs": [
        {
          "internalType": "bytes32",
          "name": "",
          "type": "bytes32"
        }
      ],
      "stateMutability": "nonpayable",
      "type": "function"
    },
    {
      "inputs": [
        {
          "internalType": "string",
          "name": "did",
          "type": "string"
        },
        {
          "internalType": "bytes32",
          "name": "requestId",
          "type": "bytes32"
        },
        {
          "internalType": "string",
          "name": "result",
          "type": "string"
        }
      ],
      "name": "submitRequestTimeout",
      "outputs": [],
      "stateMutability": "nonpayable",
      "type": "function"
    },
    {
      "inputs": [
        {
          "internalType": "string",
          "name": "did",
          "type": "string"
        },
        {
          "internalType": "bytes32",
          "name": "requestId",
          "type": "bytes32"
        },
        {
          "internalType": "string",
          "name": "result",
          "type": "string"
        }
      ],
      "name": "submitResult",
      "outputs": [],
      "stateMutability": "nonpayable",
      "type": "function"
    },
    {
      "inputs": [
        {
          "internalType": "string",
          "name": "did",
          "type": "string"
        },
        {
          "internalType": "bytes32",
          "name": "requestId",
          "type": "bytes32"
        },
        {
          "internalType": "string",
          "name": "seed",
          "type": "string"
        },
        {
          "internalType": "string",
          "name": "pubKey",
          "type": "string"
        }
      ],
      "name": "submitSeed",
      "outputs": [],
      "stateMutability": "nonpayable",
      "type": "function"
    },
    {
      "inputs": [
        {
          "internalType": "address",
          "name": "newOwner",
          "type": "address"
        }
      ],
      "name": "transferOwnership",
      "outputs": [],
      "stateMutability": "nonpayable",
      "type": "function"
    },
    {
      "inputs": [
        {
          "internalType": "string",
          "name": "did",
          "type": "string"
        },
        {
          "internalType": "bytes32",
          "name": "requestId",
          "type": "bytes32"
        },
        {
          "internalType": "address[]",
          "name": "idxAddrs",
          "type": "address[]"
        },
        {
          "internalType": "int256[]",
          "name": "idxScores",
          "type": "int256[]"
        },
        {
          "internalType": "address[]",
          "name": "oraAddrs",
          "type": "address[]"
        },
        {
          "internalType": "int256[]",
          "name": "oraScores",
          "type": "int256[]"
        }
      ],
      "name": "updateScores",
      "outputs": [],
      "stateMutability": "nonpayable",
      "type": "function"
    }
  ],
  "bytecode": "0x6080604052348015600f57600080fd5b503380603557604051631e4fbdf760e01b81526000600482015260240160405180910390fd5b603c816041565b506091565b600080546001600160a01b038381166001600160a01b0319831681178455604051919092169283917f8be0079c531659141344cd1fd0a4f28419497f9722a3daafe3b4186f6b6457e09190a35050565b615300806100a06000396000f3fe608060405234801561001057600080fd5b50600436106101735760003560e01c806388a0608b116100de578063b6bfb1d011610097578063cd9a15e711610071578063cd9a15e714610336578063dfc140df14610349578063f2fde38b14610369578063fb1e61ca1461037c57600080fd5b8063b6bfb1d0146102fd578063b7ba4d1314610310578063cb1c642a1461032357600080fd5b806388a0608b146102665780638a1fb49f146102795780638da5cb5b1461028c578063a87425f4146102a7578063a8faa121146102ca578063add4c784146102dd57600080fd5b80634b3b8a0d116101305780634b3b8a0d146101ec5780634c3a849d146101ff5780634f7e7b5e146102125780635cd1f8cc14610225578063715018a61461023857806387aba9dd1461024057600080fd5b806302ee9b8c1461017857806305e37b411461018d578063169af8a7146101a05780631bbb6011146101b35780633606e515146101c65780634ae56d62146101d9575b600080fd5b61018b61018636600461401d565b61039c565b005b61018b61019b3660046140a1565b610509565b61018b6101ae3660046141b0565b610533565b61018b6101c1366004614220565b610707565b61018b6101d436600461426d565b61081a565b61018b6101e736600461401d565b610b7e565b61018b6101fa3660046141b0565b610ce3565b61018b61020d3660046141b0565b610de6565b61018b61022036600461426d565b610f4e565b61018b610233366004614220565b6110cf565b61018b61127a565b61025361024e3660046142b1565b61128e565b6040519081526020015b60405180910390f35b61018b6102743660046140a1565b6112ea565b61018b6102873660046142eb565b611314565b6000546040516001600160a01b03909116815260200161025d565b6102ba6102b536600461426d565b61152f565b604051901515815260200161025d565b61018b6102d8366004614392565b6115b9565b6102f06102eb3660046143ed565b61189d565b60405161025d9190614456565b61018b61030b36600461448c565b61198a565b61018b61031e36600461426d565b611a7f565b61018b610331366004614577565b611c2d565b61018b6103443660046140a1565b6121c4565b61035c610357366004614681565b6121ee565b60405161025d919061472f565b61018b6103773660046140a1565b6125e7565b61038f61038a3660046143ed565b612625565b60405161025d9190614899565b83838080601f0160208091040260200160405190810160405280939291908181526020018383808284376000920191909152505060015460405163bd290b8160e01b81526001600160a01b03909116925063bd290b819150610404908490339060040161498b565b602060405180830381865afa158015610421573d6000803e3d6000fd5b505050506040513d601f19601f8201168201806040525081019061044591906149b5565b61046257604051631bc2178f60e01b815260040160405180910390fd5b60005b82811015610501576001546001600160a01b03166323278b2c8787878786818110610492576104926149d7565b90506020028101906104a491906149ed565b6040518563ffffffff1660e01b81526004016104c39493929190614a5c565b600060405180830381600087803b1580156104dd57600080fd5b505af11580156104f1573d6000803e3d6000fd5b5050600190920191506104659050565b505050505050565b610511612ac1565b600280546001600160a01b0319166001600160a01b0392909216919091179055565b816000808281526004602081905260409091206007015460ff169081111561055d5761055d6147df565b0361057b576040516308ae297960e31b815260040160405180910390fd5b838360056000828152602001908152602001600020600801826040516105a19190614a8e565b9081526040519081900360200190205460ff166105d1576040516373d664e160e11b815260040160405180910390fd5b600360008681526004602081905260409091206007015460ff16908111156105fb576105fb6147df565b148061062c575060008581526004602081905260409091206007015460ff168181111561062a5761062a6147df565b145b1561064a5760405163195332a560e01b815260040160405180910390fd5b60008581526004602090815260408083206005909252822082918291610674918b918a9190612aee565b92509250925082156106bd57877fbe14b7a7d779b98a5bb538ef85a869aadff29c26781d71edf90b460afd72c496826040516106b09190614456565b60405180910390a26106fc565b81156106fc57877f31382cf5ac23d51290b15fd9186508d184cea0cdf3d4f969c0289e39b82c34e3826040516106f39190614456565b60405180910390a25b505050505050505050565b816000808281526004602081905260409091206007015460ff1690811115610731576107316147df565b0361074f576040516308ae297960e31b815260040160405180910390fd5b838360056000828152602001908152602001600020600801826040516107759190614a8e565b9081526040519081900360200190205460ff166107a5576040516373d664e160e11b815260040160405180910390fd5b6000858152600460209081526040808320600590925282206107ce918991889190600e01612d80565b9050801561081157857fc3d44bb7614bff9c4c6bc72c369a0e910f67e466a785f7ece661d9b4393b41008660405161080891815260200190565b60405180910390a25b50505050505050565b806000808281526004602081905260409091206007015460ff1690811115610844576108446147df565b03610862576040516308ae297960e31b815260040160405180910390fd5b8160016000808381526004602081905260409091206007015460ff169081111561088e5761088e6147df565b036108ac576040516308ae297960e31b815260040160405180910390fd5b8060048111156108be576108be6147df565b60008381526004602081905260409091206007015460ff16908111156108e6576108e66147df565b146109245760008281526004602081905260409182902060070154915163e38d24af60e01b815261091b9260ff169101614aaa565b60405180910390fd5b600084815260056020908152604080832060048082015460015484516316ede89d60e11b815294516001600160a01b03928316979687966109bb968f9660029091019590941693632ddbd13a9382820193929091908290030181865afa158015610992573d6000803e3d6000fd5b505050506040513d601f19601f820116820180604052508101906109b69190614ab8565b612e04565b915091508115610a1a5760405187907fa3c906bf1ab14189d406ad394e3773e91e74c7816c737729ec3fec05fb36960190600090a26001600160a01b0383166000908152600760205260408120805491610a1483614ae7565b91905055505b6001600160a01b03831660009081526007602052604090205460041901610aec576001600160a01b038316600081815260076020908152604091829020548251938452908301527ffe3d9a902332d9a11731a4a0100eed7af3892ceae895c4b939f9b216cee44a51910160405180910390a16001546040516312f8799b60e31b81526001600160a01b038581166004830152909116906397c3ccd890602401600060405180830381600087803b158015610ad357600080fd5b505af1158015610ae7573d6000803e3d6000fd5b505050505b8015610b7457600087815260046020819052604090912060078101805491929160ff19166001830217905550604051806060016040528060328152602001615276603291396008820190610b409082614b83565b50877f31382cf5ac23d51290b15fd9186508d184cea0cdf3d4f969c0289e39b82c34e3826008016040516106f39190614cc4565b5050505050505050565b83838080601f0160208091040260200160405190810160405280939291908181526020018383808284376000920191909152505060015460405163bd290b8160e01b81526001600160a01b03909116925063bd290b819150610be6908490339060040161498b565b602060405180830381865afa158015610c03573d6000803e3d6000fd5b505050506040513d601f19601f82011682018060405250810190610c2791906149b5565b610c4457604051631bc2178f60e01b815260040160405180910390fd5b60005b82811015610501576002546001600160a01b03166323278b2c8787878786818110610c7457610c746149d7565b9050602002810190610c8691906149ed565b6040518563ffffffff1660e01b8152600401610ca59493929190614a5c565b600060405180830381600087803b158015610cbf57600080fd5b505af1158015610cd3573d6000803e3d6000fd5b505060019092019150610c479050565b60015460405163bd290b8160e01b815284916001600160a01b03169063bd290b8190610d15908490339060040161498b565b602060405180830381865afa158015610d32573d6000803e3d6000fd5b505050506040513d601f19601f82011682018060405250810190610d5691906149b5565b610d7357604051631bc2178f60e01b815260040160405180910390fd5b6000838152600660205260409020610d8e9085908490612f37565b827f38ffacae4c08fe902886b7accdf507ec217bc7df7a9723575a6ceff20dbfabd185846006600088815260200190815260200160002060010154604051610dd893929190614cd7565b60405180910390a250505050565b816000808281526004602081905260409091206007015460ff1690811115610e1057610e106147df565b03610e2e576040516308ae297960e31b815260040160405180910390fd5b83836005600082815260200190815260200160002060080182604051610e549190614a8e565b9081526040519081900360200190205460ff16610e84576040516373d664e160e11b815260040160405180910390fd5b600360008681526004602081905260409091206007015460ff1690811115610eae57610eae6147df565b1480610edf575060008581526004602081905260409091206007015460ff1681811115610edd57610edd6147df565b145b15610efd5760405163195332a560e01b815260040160405180910390fd5b6000858152600460205260408120610f16908690613077565b9050801561081157857f31382cf5ac23d51290b15fd9186508d184cea0cdf3d4f969c0289e39b82c34e3866040516108089190614456565b81816005600082815260200190815260200160002060080182604051610f749190614a8e565b9081526040519081900360200190205460ff16610fa4576040516373d664e160e11b815260040160405180910390fd5b8260016000808381526004602081905260409091206007015460ff1690811115610fd057610fd06147df565b03610fee576040516308ae297960e31b815260040160405180910390fd5b806004811115611000576110006147df565b60008381526004602081905260409091206007015460ff1690811115611028576110286147df565b1461105d5760008281526004602081905260409182902060070154915163e38d24af60e01b815261091b9260ff169101614aaa565b60008581526004602090815260408083206005909252822090916110828984846130c1565b905080156106fc5760078301805460ff1916600290811790915560405189917f358984bf1d24c231bc697ab27186313b8eb4e26bc4ed870fcdf7d2d3680493c6916106f391860190614cc4565b60015460405163bd290b8160e01b815284916001600160a01b03169063bd290b8190611101908490339060040161498b565b602060405180830381865afa15801561111e573d6000803e3d6000fd5b505050506040513d601f19601f8201168201806040525081019061114291906149b5565b61115f57604051631bc2178f60e01b815260040160405180910390fd5b8260016000808381526004602081905260409091206007015460ff169081111561118b5761118b6147df565b036111a9576040516308ae297960e31b815260040160405180910390fd5b8060048111156111bb576111bb6147df565b60008381526004602081905260409091206007015460ff16908111156111e3576111e36147df565b146112185760008281526004602081905260409182902060070154915163e38d24af60e01b815261091b9260ff169101614aaa565b60008581526005602052604081206001546112409189918891906001600160a01b03166130d2565b9050801561081157857f4de242b3920f662fc4069c2c1f950ff318100d139512be2d355fe1cc5558d62d8660405161080891815260200190565b611282612ac1565b61128c600061319b565b565b60015460035460009182916112b49185916004916001600160a01b0390811691166131eb565b604051909150339082907f73394f43049193ecd2e0c22eefa0ecf10987ce9c72da906a82a3336dc2ac054790600090a392915050565b6112f2612ac1565b600380546001600160a01b0319166001600160a01b0392909216919091179055565b60015460405163bd290b8160e01b815287916001600160a01b03169063bd290b8190611346908490339060040161498b565b602060405180830381865afa158015611363573d6000803e3d6000fd5b505050506040513d601f19601f8201168201806040525081019061138791906149b5565b6113a457604051631bc2178f60e01b815260040160405180910390fd5b8560016000808381526004602081905260409091206007015460ff16908111156113d0576113d06147df565b036113ee576040516308ae297960e31b815260040160405180910390fd5b806004811115611400576114006147df565b60008381526004602081905260409091206007015460ff1690811115611428576114286147df565b1461145d5760008281526004602081905260409182902060070154915163e38d24af60e01b815261091b9260ff169101614aaa565b60008881526005602052604090206002018054819061147b90614b00565b15905061149b576040516315ca91ff60e11b815260040160405180910390fd5b806114a7888a83614d0d565b50600181016114b7868883614d0d565b506002810180546001600160a01b031916331790556003810180549060006114de83614ae7565b9190505550887fe6a5556870d36b0786fbc1e784a9aeb3d9221fffaae36a9a56a757f9aa972f9c898989893360405161151b959493929190614dcc565b60405180910390a250505050505050505050565b6000818160008281526004602081905260409091206007015460ff169081111561155b5761155b6147df565b03611579576040516308ae297960e31b815260040160405180910390fd5b600560008481526020019081526020016000206008018460405161159d9190614a8e565b9081526040519081900360200190205460ff1691505092915050565b60015460405163bd290b8160e01b815285916001600160a01b03169063bd290b81906115eb908490339060040161498b565b602060405180830381865afa158015611608573d6000803e3d6000fd5b505050506040513d601f19601f8201168201806040525081019061162c91906149b5565b61164957604051631bc2178f60e01b815260040160405180910390fd5b8360016000808381526004602081905260409091206007015460ff1690811115611675576116756147df565b03611693576040516308ae297960e31b815260040160405180910390fd5b8060048111156116a5576116a56147df565b60008381526004602081905260409091206007015460ff16908111156116cd576116cd6147df565b146117025760008281526004602081905260409182902060070154915163e38d24af60e01b815261091b9260ff169101614aaa565b60008681526004602090815260408083206005909252909120600154611736918891889185916001600160a01b03166134bb565b50600087815260056020526040812060038301546002909101919060649061176090600a90614e0e565b61176a9190614e25565b60035460028501546040516323b872dd60e01b81526001600160a01b0391821660048201523060248201526044810184905292935016906323b872dd906064016020604051808303816000875af11580156117c9573d6000803e3d6000fd5b505050506040513d601f19601f820116820180604052508101906117ed91906149b5565b50600354600283015460405163a9059cbb60e01b81526001600160a01b0391821660048201526024810184905291169063a9059cbb906044016020604051808303816000875af1158015611845573d6000803e3d6000fd5b505050506040513d601f19601f8201168201806040525081019061186991906149b5565b50887fd228d7fb9deac9e3713560a6105052420492aeec618ba81dd284fa4b01157e1484600a0160405161151b9190614e47565b6060816000808281526004602081905260409091206007015460ff16908111156118c9576118c96147df565b036118e7576040516308ae297960e31b815260040160405180910390fd5b6000838152600460205260409020600801805461190390614b00565b80601f016020809104026020016040519081016040528092919081815260200182805461192f90614b00565b801561197c5780601f106119515761010080835404028352916020019161197c565b820191906000526020600020905b81548152906001019060200180831161195f57829003601f168201915b505050505091505b50919050565b60015460405163bd290b8160e01b815284916001600160a01b03169063bd290b81906119bc908490339060040161498b565b602060405180830381865afa1580156119d9573d6000803e3d6000fd5b505050506040513d601f19601f820116820180604052508101906119fd91906149b5565b611a1a57604051631bc2178f60e01b815260040160405180910390fd5b6000838152600660205260409020611a3590859084906136c0565b827f4e39757557f7d289c5c952b50043388060886deb3106ff793301c55f0a54b49d85846006600088815260200190815260200160002060020154604051610dd893929190614ebe565b60025460405163bd290b8160e01b815283916001600160a01b03169063bd290b8190611ab1908490339060040161498b565b602060405180830381865afa158015611ace573d6000803e3d6000fd5b505050506040513d601f19601f82011682018060405250810190611af291906149b5565b611b0f5760405163edb5c31560e01b815260040160405180910390fd5b8160016000808381526004602081905260409091206007015460ff1690811115611b3b57611b3b6147df565b03611b59576040516308ae297960e31b815260040160405180910390fd5b806004811115611b6b57611b6b6147df565b60008381526004602081905260409091206007015460ff1690811115611b9357611b936147df565b14611bc85760008281526004602081905260409182902060070154915163e38d24af60e01b815261091b9260ff169101614aaa565b600084815260046020908152604080832060059092528220611beb91889161375f565b9050847fd3bbf076202f8cc5934e4f5ab20f00092b1accc28994f828d475c3d61c6b2c8b82604051611c1d9190614ee3565b60405180910390a2505050505050565b886000808281526004602081905260409091206007015460ff1690811115611c5757611c576147df565b03611c75576040516308ae297960e31b815260040160405180910390fd5b8a8a6005600082815260200190815260200160002060080182604051611c9b9190614a8e565b9081526040519081900360200190205460ff16611ccb576040516373d664e160e11b815260040160405180910390fd5b60008c8152600560205260409020600254600154611d0992600e01918e918e918e918e918e918e918e918e916001600160a01b039081169116613856565b61216f600460008e815260200190815260200160002060405180610160016040529081600082018054611d3b90614b00565b80601f0160208091040260200160405190810160405280929190818152602001828054611d6790614b00565b8015611db45780601f10611d8957610100808354040283529160200191611db4565b820191906000526020600020905b815481529060010190602001808311611d9757829003601f168201915b50505050508152602001600182018054611dcd90614b00565b80601f0160208091040260200160405190810160405280929190818152602001828054611df990614b00565b8015611e465780601f10611e1b57610100808354040283529160200191611e46565b820191906000526020600020905b815481529060010190602001808311611e2957829003601f168201915b505050918352505060028201546001600160a01b0316602082015260038201546040820152600480830154606083015260058301546080830152600683015460a0830152600783015460c09092019160ff1690811115611ea857611ea86147df565b6004811115611eb957611eb96147df565b8152602001600882018054611ecd90614b00565b80601f0160208091040260200160405190810160405280929190818152602001828054611ef990614b00565b8015611f465780601f10611f1b57610100808354040283529160200191611f46565b820191906000526020600020905b815481529060010190602001808311611f2957829003601f168201915b5050505050815260200160098201805480602002602001604051908101604052809291908181526020016000905b8282101561204b5783829060005260206000209060020201604051806040016040529081600082018054611fa790614b00565b80601f0160208091040260200160405190810160405280929190818152602001828054611fd390614b00565b80156120205780601f10611ff557610100808354040283529160200191612020565b820191906000526020600020905b81548152906001019060200180831161200357829003601f168201915b50505091835250506001918201546001600160a01b0316602091820152918352929092019101611f74565b505050508152602001600a8201805480602002602001604051908101604052809291908181526020016000905b8282101561214f57838290600052602060002090600202016040518060400160405290816000820180546120ab90614b00565b80601f01602080910402602001604051908101604052809291908181526020018280546120d790614b00565b80156121245780601f106120f957610100808354040283529160200191612124565b820191906000526020600020905b81548152906001019060200180831161210757829003601f168201915b50505091835250506001918201546001600160a01b0316602091820152918352929092019101612078565b505050915250506003548d908d908b908b906001600160a01b0316613970565b8b7f6e60aca7f5afb26b318a08a758bc0338f24b351719d9abe71678b554a5496f028c8c8c8c8c8c8c8c6040516121ad989796959493929190614f6d565b60405180910390a250505050505050505050505050565b6121cc612ac1565b600180546001600160a01b0319166001600160a01b0392909216919091179055565b6000848152600660205260408120606091846001600160401b03811115612217576122176140c5565b60405190808252806020026020018201604052801561227357816020015b6122606040518060800160405280606081526020016000815260200160608152602001606081525090565b8152602001906001900390816122355790505b50905060005b858110156125da57600083888884818110612296576122966149d7565b90506020028101906122a891906149ed565b6040516122b6929190614fcd565b90815260200160405180910390209050858160010154101561250757806040518060800160405290816000820180546122ee90614b00565b80601f016020809104026020016040519081016040528092919081815260200182805461231a90614b00565b80156123675780601f1061233c57610100808354040283529160200191612367565b820191906000526020600020905b81548152906001019060200180831161234a57829003601f168201915b505050505081526020016001820154815260200160028201805461238a90614b00565b80601f01602080910402602001604051908101604052809291908181526020018280546123b690614b00565b80156124035780601f106123d857610100808354040283529160200191612403565b820191906000526020600020905b8154815290600101906020018083116123e657829003601f168201915b5050505050815260200160038201805480602002602001604051908101604052809291908181526020016000905b828210156124dd57838290600052602060002001805461245090614b00565b80601f016020809104026020016040519081016040528092919081815260200182805461247c90614b00565b80156124c95780601f1061249e576101008083540402835291602001916124c9565b820191906000526020600020905b8154815290600101906020018083116124ac57829003601f168201915b505050505081526020019060010190612431565b50505050815250508383815181106124f7576124f76149d7565b60200260200101819052506125d1565b6040518060800160405280898985818110612524576125246149d7565b905060200281019061253691906149ed565b8080601f016020809104026020016040519081016040528093929190818152602001838380828437600092018290525093855250505060208083018290526040805180830182528381528185015280518381529182019052606090920191906125af565b606081526020019060019003908161259a5790505b508152508383815181106125c5576125c56149d7565b60200260200101819052505b50600101612279565b509150505b949350505050565b6125ef612ac1565b6001600160a01b03811661261957604051631e4fbdf760e01b81526000600482015260240161091b565b6126228161319b565b50565b61262d613e60565b816000808281526004602081905260409091206007015460ff1690811115612657576126576147df565b03612675576040516308ae297960e31b815260040160405180910390fd5b600083815260046020526040908190208151610160810190925280548290829061269e90614b00565b80601f01602080910402602001604051908101604052809291908181526020018280546126ca90614b00565b80156127175780601f106126ec57610100808354040283529160200191612717565b820191906000526020600020905b8154815290600101906020018083116126fa57829003601f168201915b5050505050815260200160018201805461273090614b00565b80601f016020809104026020016040519081016040528092919081815260200182805461275c90614b00565b80156127a95780601f1061277e576101008083540402835291602001916127a9565b820191906000526020600020905b81548152906001019060200180831161278c57829003601f168201915b505050918352505060028201546001600160a01b0316602082015260038201546040820152600480830154606083015260058301546080830152600683015460a0830152600783015460c09092019160ff169081111561280b5761280b6147df565b600481111561281c5761281c6147df565b815260200160088201805461283090614b00565b80601f016020809104026020016040519081016040528092919081815260200182805461285c90614b00565b80156128a95780601f1061287e576101008083540402835291602001916128a9565b820191906000526020600020905b81548152906001019060200180831161288c57829003601f168201915b5050505050815260200160098201805480602002602001604051908101604052809291908181526020016000905b828210156129ae578382906000526020600020906002020160405180604001604052908160008201805461290a90614b00565b80601f016020809104026020016040519081016040528092919081815260200182805461293690614b00565b80156129835780601f1061295857610100808354040283529160200191612983565b820191906000526020600020905b81548152906001019060200180831161296657829003601f168201915b50505091835250506001918201546001600160a01b03166020918201529183529290920191016128d7565b505050508152602001600a8201805480602002602001604051908101604052809291908181526020016000905b82821015612ab25783829060005260206000209060020201604051806040016040529081600082018054612a0e90614b00565b80601f0160208091040260200160405190810160405280929190818152602001828054612a3a90614b00565b8015612a875780601f10612a5c57610100808354040283529160200191612a87565b820191906000526020600020905b815481529060010190602001808311612a6a57829003601f168201915b50505091835250506001918201546001600160a01b03166020918201529183529290920191016129db565b50505091525090949350505050565b6000546001600160a01b0316331461128c5760405163118cdaa760e01b815233600482015260240161091b565b6000806060600084600a0190508060000188604051612b0d9190614a8e565b9081526040519081900360200190205460ff1615612b3e57604051637c9a1cf960e01b815260040160405180910390fd5b60018160000189604051612b529190614a8e565b908152604051908190036020018120805492151560ff19909316929092179091556001820190612b83908990614a8e565b908152602001604051809103902054600003612bbc576002810180546001810182556000918252602090912001612bba8882614b83565b505b8060010187604051612bce9190614a8e565b9081526040519081900360200190208054906000612beb83614ae7565b9091555050600381018054906000612c0283614ae7565b90915550506005860154612c17906002614e0e565b8160010188604051612c299190614a8e565b9081526020016040518091039020546003612c449190614e0e565b10612c785760078601805460ff1916600317905560088601612c668882614b83565b50600160008893509350935050612d76565b8560050154816003015403612d5e5760078601805460ff19166004179055604080516060810190915260238082526152a860208301396008870190612cbd9082614b83565b506000600187600801808054612cd290614b00565b80601f0160208091040260200160405190810160405280929190818152602001828054612cfe90614b00565b8015612d4b5780601f10612d2057610100808354040283529160200191612d4b565b820191906000526020600020905b815481529060010190602001808311612d2e57829003601f168201915b5050505050905093509350935050612d76565b50506040805160208101909152600080825292508291505b9450945094915050565b60006003600784015460ff166004811115612d9d57612d9d6147df565b14158015612dc457506004600784015460ff166004811115612dc157612dc16147df565b14155b15612deb57600783015460405163e38d24af60e01b815261091b9160ff1690600401614aaa565b612dfb8583868660050154613a2e565b95945050505050565b600080836000018054612e1690614b00565b9050600003612e385760405163159c2e3360e11b815260040160405180910390fd5b600384015460009081526004850160205260409081902090516001820190612e61908890614a8e565b9081526040519081900360200190205460ff1615612e9257604051637c9a1cf960e01b815260040160405180910390fd5b60018160010187604051612ea69190614a8e565b908152604051908190036020019020805491151560ff199092169190911790558054816000612ed483614ae7565b909155506000905080612ee8866002614e0e565b8354612ef5906003614e0e565b10612f2a576040805160208101909152600081528790612f159082614b83565b50600191506005876003015403612f2a575060015b9097909650945050505050565b8151600003612f5957604051631c37cddf60e21b815260040160405180910390fd5b6040518190612f69908590614a8e565b908152602001604051809103902060010154600014612f9b57604051636425f57d60e11b815260040160405180910390fd5b60408051608081018252848152426020820152908101839052606081016000604051908082528060200260200182016040528015612fed57816020015b6060815260200190600190039081612fd85790505b5090526040518290613000908690614a8e565b9081526040519081900360200190208151819061301d9082614b83565b50602082015160018201556040820151600282019061303c9082614b83565b5060608201518051613058916003840191602090910190613ed4565b50505060018101805490600061306d83614ae7565b9190505550505050565b6000600a826004015461308a9190614fdd565b42106130b75760078201805460ff19166004179055600882016130ad8482614b83565b50600190506130bb565b5060005b92915050565b60006125df84846005015484613b31565b60008260020160000180546130e690614b00565b90506000036131085760405163159c2e3360e11b815260040160405180910390fd5b6000826001600160a01b0316632ddbd13a6040518163ffffffff1660e01b8152600401602060405180830381865afa158015613148573d6000803e3d6000fd5b505050506040513d601f19601f8201168201806040525081019061316c9190614ab8565b6005850154600090815260078601602052604090209091506131919087908784613a2e565b9695505050505050565b600080546001600160a01b038381166001600160a01b0319831681178455604051919092169283917f8be0079c531659141344cd1fd0a4f28419497f9722a3daafe3b4186f6b6457e09190a35050565b60006131f785806149ed565b9050600003613219576040516363d15d8360e01b815260040160405180910390fd5b846080013560000361323e57604051631b1853b760e31b815260040160405180910390fd5b604051636eb1769f60e11b81523360048201523060248201526080860135906001600160a01b0384169063dd62ed3e90604401602060405180830381865afa15801561328e573d6000803e3d6000fd5b505050506040513d601f19601f820116820180604052508101906132b29190614ab8565b108061332957506040516370a0823160e01b81523360048201526080860135906001600160a01b038416906370a0823190602401602060405180830381865afa158015613303573d6000803e3d6000fd5b505050506040513d601f19601f820116820180604052508101906133279190614ab8565b105b1561334757604051631e9acf1760e31b815260040160405180910390fd5b600061335286613be0565b90506000808281526020879052604090206007015460ff16600481111561337b5761337b6147df565b1461339957604051633064a4d360e21b815260040160405180910390fd5b6000846001600160a01b0316632ddbd13a6040518163ffffffff1660e01b8152600401602060405180830381865afa1580156133d9573d6000803e3d6000fd5b505050506040513d601f19601f820116820180604052508101906133fd9190614ab8565b90508087604001351115613424576040516311d0260b60e31b815260040160405180910390fd5b600082815260208790526040902061343c88806149ed565b8291613449919083614d0d565b5061345760208901896149ed565b6001830191613467919083614d0d565b506002810180546001600160a01b0319163317905560808801356003820155426004820155604088013560058201556060909701356006880155506007909501805460ff1916600117905550929392505050565b600a830154606090156134e157604051639e81a0b760e01b815260040160405180910390fd5b600584015485146135055760405163403f48a560e11b815260040160405180910390fd5b6000868660405160200161351a929190615027565b6040516020818303038152906040528051906020012090506135578185600701600087600201600301548152602001908152602001600020613c3b565b50604051630e325ac560e21b81526000906001600160a01b038516906338c96b1490613589908b908b90600401615034565b600060405180830381865afa1580156135a6573d6000803e3d6000fd5b505050506040513d6000823e601f3d908101601f191682016040526135ce9190810190615048565b600587015490915060005b818110156136b25787600a018382815181106135f7576135f76149d7565b602090810291909101810151825460018101845560009384529190922082516002909202019081906136299082614b83565b5060208201518160010160006101000a8154816001600160a01b0302191690836001600160a01b031602179055505050600187600801848381518110613671576136716149d7565b60200260200101516000015160405161368a9190614a8e565b908152604051908190036020019020805491151560ff199092169190911790556001016135d9565b509098975050505050505050565b600081600001846040516136d49190614a8e565b90815260200160405180910390209050806001015460000361370957604051630926d5d760e31b815260040160405180910390fd5b60038101541561372c57604051631dc1193d60e11b815260040160405180910390fd5b82516137419060038301906020860190613ed4565b5060028201805490600061375483614ae7565b919050555050505050565b60408051808201909152606081526000602082015281600901846040516137869190614a8e565b9081526040519081900360200190205460ff16156137b7576040516316ac370560e31b815260040160405180910390fd5b600182600901856040516137cb9190614a8e565b9081526040805160209281900383018120805460ff191694151594909417909355828101905285825233818301526009850180546001810182556000918252919020825183926002029091019081906138249082614b83565b5060209190910151600190910180546001600160a01b0319166001600160a01b03909216919091179055949350505050565b60008a8a8a8a8a8a8a8a6040516020016138779897969594939291906151a9565b604051602081830303815290604052805190602001209050613899818d613c3b565b50604051633850bf9560e21b81526001600160a01b0384169063e142fe54906138cc908e908e908e908e906004016151e2565b600060405180830381600087803b1580156138e657600080fd5b505af11580156138fa573d6000803e3d6000fd5b5050604051633850bf9560e21b81526001600160a01b038516925063e142fe549150613930908a908a908a908a906004016151e2565b600060405180830381600087803b15801561394a57600080fd5b505af115801561395e573d6000803e3d6000fd5b50505050505050505050505050505050565b60006064600a88606001516139859190614e0e565b61398f9190614e25565b876060015161399e9190615209565b60408881015190516323b872dd60e01b81526001600160a01b039182166004820152306024820152604481018390529192508316906323b872dd906064016020604051808303816000875af11580156139fb573d6000803e3d6000fd5b505050506040513d601f19601f82011682018060405250810190613a1f91906149b5565b50610811828787878786613cbf565b600283015460009015613a54576040516333560d2360e01b815260040160405180910390fd5b6040518490613a64908790614a8e565b9081526040519081900360200190205460ff1615613a9557604051637c9a1cf960e01b815260040160405180910390fd5b60018460000186604051613aa99190614a8e565b9081526040805160209281900383019020805460ff191693151593909317909255600085815260018701909152908120805491613ae583614ae7565b90915550613af69050826002614e0e565b6000848152600186016020526040902054613b12906003614e0e565b10613b2657506002830182905560016125df565b506000949350505050565b60008160010184604051613b459190614a8e565b9081526040519081900360200190205460ff1615613b7657604051637c9a1cf960e01b815260040160405180910390fd5b60018260010185604051613b8a9190614a8e565b908152604051908190036020019020805491151560ff199092169190911790558154826000613bb883614ae7565b90915550613bc99050836002614e0e565b8254613bd6906003614e0e565b1015949350505050565b6000334246613bef85806149ed565b613bfc60208801886149ed565b88604001358960600135604051602001613c1e9998979695949392919061521c565b604051602081830303815290604052805190602001209050919050565b6002810154600090613c605760405163059688ad60e11b815260040160405180910390fd5b600382015460ff1615613c85576040516238245d60e61b815260040160405180910390fd5b81600201548314613ca8576040516257c03760e51b815260040160405180910390fd5b50600301805460ff19166001908117909155919050565b6000613ccb8584614fdd565b905080600003613cdb5750610501565b6000613ce78284614e25565b905060005b84811015613da457886001600160a01b031663a9059cbb878784818110613d1557613d156149d7565b9050602002016020810190613d2a91906140a1565b6040516001600160e01b031960e084901b1681526001600160a01b039091166004820152602481018590526044016020604051808303816000875af1158015613d77573d6000803e3d6000fd5b505050506040513d601f19601f82011682018060405250810190613d9b91906149b5565b50600101613cec565b5060005b868110156106fc57886001600160a01b031663a9059cbb898984818110613dd157613dd16149d7565b9050602002016020810190613de691906140a1565b6040516001600160e01b031960e084901b1681526001600160a01b039091166004820152602481018590526044016020604051808303816000875af1158015613e33573d6000803e3d6000fd5b505050506040513d601f19601f82011682018060405250810190613e5791906149b5565b50600101613da8565b604051806101600160405280606081526020016060815260200160006001600160a01b031681526020016000815260200160008152602001600081526020016000815260200160006004811115613eb957613eb96147df565b81526020016060815260200160608152602001606081525090565b828054828255906000526020600020908101928215613f1a579160200282015b82811115613f1a5782518290613f0a9082614b83565b5091602001919060010190613ef4565b50613f26929150613f2a565b5090565b80821115613f26576000613f3e8282613f47565b50600101613f2a565b508054613f5390614b00565b6000825580601f10613f63575050565b601f01602090049060005260206000209081019061262291905b80821115613f265760008155600101613f7d565b60008083601f840112613fa357600080fd5b5081356001600160401b03811115613fba57600080fd5b602083019150836020828501011115613fd257600080fd5b9250929050565b60008083601f840112613feb57600080fd5b5081356001600160401b0381111561400257600080fd5b6020830191508360208260051b8501011115613fd257600080fd5b6000806000806040858703121561403357600080fd5b84356001600160401b0381111561404957600080fd5b61405587828801613f91565b90955093505060208501356001600160401b0381111561407457600080fd5b61408087828801613fd9565b95989497509550505050565b6001600160a01b038116811461262257600080fd5b6000602082840312156140b357600080fd5b81356140be8161408c565b9392505050565b634e487b7160e01b600052604160045260246000fd5b604080519081016001600160401b03811182821017156140fd576140fd6140c5565b60405290565b604051601f8201601f191681016001600160401b038111828210171561412b5761412b6140c5565b604052919050565b60006001600160401b0382111561414c5761414c6140c5565b50601f01601f191660200190565b600082601f83011261416b57600080fd5b813561417e61417982614133565b614103565b81815284602083860101111561419357600080fd5b816020850160208301376000918101602001919091529392505050565b6000806000606084860312156141c557600080fd5b83356001600160401b038111156141db57600080fd5b6141e78682870161415a565b9350506020840135915060408401356001600160401b0381111561420a57600080fd5b6142168682870161415a565b9150509250925092565b60008060006060848603121561423557600080fd5b83356001600160401b0381111561424b57600080fd5b6142578682870161415a565b9660208601359650604090950135949350505050565b6000806040838503121561428057600080fd5b82356001600160401b0381111561429657600080fd5b6142a28582860161415a565b95602094909401359450505050565b6000602082840312156142c357600080fd5b81356001600160401b038111156142d957600080fd5b820160a081850312156140be57600080fd5b6000806000806000806080878903121561430457600080fd5b86356001600160401b0381111561431a57600080fd5b61432689828a0161415a565b9650506020870135945060408701356001600160401b0381111561434957600080fd5b61435589828a01613f91565b90955093505060608701356001600160401b0381111561437457600080fd5b61438089828a01613f91565b979a9699509497509295939492505050565b600080600080606085870312156143a857600080fd5b84356001600160401b038111156143be57600080fd5b6143ca8782880161415a565b9450506020850135925060408501356001600160401b0381111561407457600080fd5b6000602082840312156143ff57600080fd5b5035919050565b60005b83811015614421578181015183820152602001614409565b50506000910152565b60008151808452614442816020860160208601614406565b601f01601f19169290920160200192915050565b6020815260006140be602083018461442a565b60006001600160401b03821115614482576144826140c5565b5060051b60200190565b6000806000606084860312156144a157600080fd5b83356001600160401b038111156144b757600080fd5b6144c38682870161415a565b9350506020840135915060408401356001600160401b038111156144e657600080fd5b8401601f810186136144f757600080fd5b803561450561417982614469565b8082825260208201915060208360051b85010192508883111561452757600080fd5b602084015b838110156145685780356001600160401b0381111561454a57600080fd5b6145598b60208389010161415a565b8452506020928301920161452c565b50809450505050509250925092565b60008060008060008060008060008060c08b8d03121561459657600080fd5b8a356001600160401b038111156145ac57600080fd5b6145b88d828e0161415a565b9a505060208b0135985060408b01356001600160401b038111156145db57600080fd5b6145e78d828e01613fd9565b90995097505060608b01356001600160401b0381111561460657600080fd5b6146128d828e01613fd9565b90975095505060808b01356001600160401b0381111561463157600080fd5b61463d8d828e01613fd9565b90955093505060a08b01356001600160401b0381111561465c57600080fd5b6146688d828e01613fd9565b915080935050809150509295989b9194979a5092959850565b6000806000806060858703121561469757600080fd5b8435935060208501356001600160401b038111156146b457600080fd5b6146c087828801613fd9565b9598909750949560400135949350505050565b600082825180855260208501945060208160051b8301016020850160005b8381101561472357601f1985840301885261470d83835161442a565b60209889019890935091909101906001016146f1565b50909695505050505050565b6000602082016020835280845180835260408501915060408160051b86010192506020860160005b828110156147d357603f19878603018452815180516080875261477d608088018261442a565b905060208201516020880152604082015187820360408901526147a0828261442a565b9150506060820151915086810360608801526147bc81836146d3565b965050506020938401939190910190600101614757565b50929695505050505050565b634e487b7160e01b600052602160045260246000fd5b6005811061481357634e487b7160e01b600052602160045260246000fd5b9052565b600081516040845261482c604085018261442a565b6020938401516001600160a01b0316949093019390935250919050565b600082825180855260208501945060208160051b8301016020850160005b8381101561472357601f19858403018852614883838351614817565b6020988901989093509190910190600101614867565b602081526000825161016060208401526148b761018084018261442a565b90506020840151601f198483030160408501526148d4828261442a565b91505060408401516148f160608501826001600160a01b03169052565b5060608401516080840152608084015160a084015260a084015160c084015260c084015160e084015260e084015161492d6101008501826147f5565b50610100840151838203601f190161012085015261494b828261442a565b915050610120840151601f198483030161014085015261496b8282614849565b915050610140840151601f1984830301610160850152612dfb8282614849565b60408152600061499e604083018561442a565b905060018060a01b03831660208301529392505050565b6000602082840312156149c757600080fd5b815180151581146140be57600080fd5b634e487b7160e01b600052603260045260246000fd5b6000808335601e19843603018112614a0457600080fd5b8301803591506001600160401b03821115614a1e57600080fd5b602001915036819003821315613fd257600080fd5b81835281816020850137506000828201602090810191909152601f909101601f19169091010190565b604081526000614a70604083018688614a33565b8281036020840152614a83818587614a33565b979650505050505050565b60008251614aa0818460208701614406565b9190910192915050565b602081016130bb82846147f5565b600060208284031215614aca57600080fd5b5051919050565b634e487b7160e01b600052601160045260246000fd5b600060018201614af957614af9614ad1565b5060010190565b600181811c90821680614b1457607f821691505b60208210810361198457634e487b7160e01b600052602260045260246000fd5b601f821115614b7e57806000526020600020601f840160051c81016020851015614b5b5750805b601f840160051c820191505b81811015614b7b5760008155600101614b67565b50505b505050565b81516001600160401b03811115614b9c57614b9c6140c5565b614bb081614baa8454614b00565b84614b34565b6020601f821160018114614be45760008315614bcc5750848201515b600019600385901b1c1916600184901b178455614b7b565b600084815260208120601f198516915b82811015614c145787850151825560209485019460019092019101614bf4565b5084821015614c325786840151600019600387901b60f8161c191681555b50505050600190811b01905550565b60008154614c4e81614b00565b808552600182168015614c685760018114614c8457614cbb565b60ff1983166020870152602082151560051b8701019350614cbb565b84600052602060002060005b83811015614cb25781546020828a010152600182019150602081019050614c90565b87016020019450505b50505092915050565b6020815260006140be6020830184614c41565b606081526000614cea606083018661442a565b8281036020840152614cfc818661442a565b915050826040830152949350505050565b6001600160401b03831115614d2457614d246140c5565b614d3883614d328354614b00565b83614b34565b6000601f841160018114614d6c5760008515614d545750838201355b600019600387901b1c1916600186901b178355614b7b565b600083815260209020601f19861690835b82811015614d9d5786850135825560209485019460019092019101614d7d565b5086821015614dba5760001960f88860031b161c19848701351681555b505060018560011b0183555050505050565b606081526000614de0606083018789614a33565b8281036020840152614df3818688614a33565b91505060018060a01b03831660408301529695505050505050565b80820281158282048414176130bb576130bb614ad1565b600082614e4257634e487b7160e01b600052601260045260246000fd5b500490565b6000602082016020835280845480835260408501915060408160051b860101925085600052602060002060005b828110156147d357603f1987860301845260408552614e966040860183614c41565b6001838101546001600160a01b03166020978801529095949094019360029092019101614e74565b606081526000614ed1606083018661442a565b8281036020840152614cfc81866146d3565b6020815260006140be6020830184614817565b81835260208301925060008160005b84811015614f36578135614f188161408c565b6001600160a01b031686526020958601959190910190600101614f05565b5093949350505050565b81835260208301925060008160005b84811015614f36578135865260209586019590910190600101614f4f565b608081526000614f81608083018a8c614ef6565b8281036020840152614f9481898b614f40565b90508281036040840152614fa9818789614ef6565b90508281036060840152614fbe818587614f40565b9b9a5050505050505050505050565b8183823760009101908152919050565b808201808211156130bb576130bb614ad1565b60008160005b84811015614f365781356150098161408c565b6001600160a01b031686526020958601959190910190600101614ff6565b60006125df828486614ff0565b6020815260006125df602083018486614ef6565b60006020828403121561505a57600080fd5b81516001600160401b0381111561507057600080fd5b8201601f8101841361508157600080fd5b805161508f61417982614469565b8082825260208201915060208360051b8501019250868311156150b157600080fd5b602084015b8381101561517e5780516001600160401b038111156150d457600080fd5b85016040818a03601f190112156150ea57600080fd5b6150f26140db565b60208201516001600160401b0381111561510b57600080fd5b82016020810190603f018b1361512057600080fd5b805161512e61417982614133565b8181528c602083850101111561514357600080fd5b615154826020830160208601614406565b8352505060409190910151906151698261408c565b602081810192909252845292830192016150b6565b509695505050505050565b600081818415614f36578135865260209586019590910190600101614f4f565b60006151d46151cd6151c66151bf858d8f614ff0565b8a8c615189565b8789614ff0565b8486615189565b9a9950505050505050505050565b6040815260006151f6604083018688614ef6565b8281036020840152614a83818587614f40565b818103818111156130bb576130bb614ad1565b6bffffffffffffffffffffffff198a60601b16815288601482015287603482015285876054830137600086820160548101600081528688823750909401605481019390935250607482015260940197965050505050505056fe4d6178696d756d206e756d626572206f6620696e76616c69642073656564207375626d697373696f6e7320726561636865644e6f20636f6e73656e737573207265616368656420666f722074686520726573756c74a26469706673582212208ffc8504e9e4e6179a6ad0f3f7d3f77779efa6c6474109951bd75a3c048be1c264736f6c634300081c0033",
  "linkReferences": {},
  "deployedLinkReferences": {}
}